:100000000C9435030C9452030C9452030C94520339
:100010000C9452030C9452030C9452030C9452030C
:100020000C9452030C9452030C9450190C940C1918
:100030000C94D52C0C9452030C9452030C94520340
:100040000C9452030C9452030C9452030C945203DC
:100050000C9452030C9417150C9452030C945203F5
:100060000C9452030C9452030C9452030C945203BC
:100070000C9452030C9452030C9452030C945203AC
:100080000C9452030C9452030C9452030C9452039C
:100090000C9452030C9452030C9452030C9452038C
:1000A0000C9452030C9452030C945203000101016E
:1000B0000101010101010202020202020202020325
:1000C00003030303030303040404040404040505F5
:1000D00005050506060606060707070707080808B8
:1000E00008090909090A0A0A0B0B0B0C0C0C0D0D67
:1000F0000D0E0E0E0F0F0F101011111112121313FF
:100100001414151516161717181819191A1A1B1B77
:100110001C1D1D1E1E1F20202122222324242526D3
:1001200026272829292A2B2C2D2D2E2F303132320B
:10013000333435363738393A3B3C3D3E3F40414217
:10014000434445464748494A4C4D4E4F50515354FD
:10015000555658595A5B5D5E5F61626465666869B1
:100160006B6C6D6F7072737577787A7B7D7E808231
:10017000838587888A8C8E8F91939596989A9C9E7A
:10018000A0A2A3A5A7A9ABADAFB1B3B5B7BABCBE8A
:10019000C0C2C4C6C9CBCDCFD1D4D6D8DBDDDFE257
:1001A000E4E7E9EBEEF0F3F5F8FAFDFF2E004C0082
:1001B0003900E100354100001E00140004001D005C
:1001C000085D4D001F001A0016001B00E1042A0004
:1001D000200008000700060050002C002100150038
:1001E000090019004F004A00220017000A0005000C
:1001F00000006564290046040000C55C0000E300BF
:100200003C004600000001530000E20023001C00F7
:100210000B00110000002961240018000D001000DF
:1002200052004B0025000C000E00360051002B0040
:10023000260012000F0037002F00280027001300AF
:100240003300380030004E002D0031003400E5004E
:10025000015100002900010001000100010000001F
:100260003A001E02200222022E002E5D3B001F02D9
:10027000210223020100C95C3C002F0226022F004C
:100280000100CA5C3D0030022702300001002D5DF4
:100290003E003102350035020000C35C0100010060
:1002A0000000010000002C5D0100010000000100C1
:1002B0000000C25C3F0052005100240200002B5D90
:1002C0004000240021001E00010001004100250023
:1002D00022001F003700C55C4200260023002000DA
:1002E0002700C65C430025022E0231002E000100CB
:1002F0004400450001000100010000000100010070
:1003000001000100010000000100010001000100E6
:10031000085D010001000100F20001000100010080
:100320000100F000F1000100F400010001000100F3
:10033000F3000100F50001000100010001000100CF
:1003400000000100010001000000010000000100A8
:100350000100010000000100000001000100010097
:100360000100010000000100010001000100010086
:10037000A9000100010001000100AC00AA00B600C4
:10038000010001000100AB00A80001000100010014
:100390000100010001000100005C0100AE0001004D
:1003A000010000000A00000000000306B20008007F
:1003B00001000000A800080002000200A0001400D4
:1003C000030057494E555342000000000000000052
:1003D00000008400040007002A0044006500760045
:1003E00069006300650049006E00740065007200DA
:1003F0006600610063006500470055004900440045
:100400007300000050007B003900440042003700B8
:1004100046003100460044002D00370045003700FB
:1004200041002D0034003000300038002D0039002C
:100430003300360042002D003600420041003600F5
:1004400043003100390041003300300038006300C0
:100450007D00000000001B0301636F6E6669677515
:1004600072652E6572676F646F782D657A2E636F83
:100470006D0005010902A10185020901A10005091C
:1004800019012905150025019505750181029501C0
:10049000750381010501093009311581257F950218
:1004A0007508810609381581257F95017508810633
:1004B000050C0A38021581257F950175088106C053
:1004C000C005010980A101850319012AB7001501A2
:1004D00026B700950175108100C0050C0901A10126
:1004E000850419012AA002150126A00295017510A4
:1004F0008100C005010906A1018505050719E0294C
:10050000E7150025019508750181020507190029E5
:10051000EF1500250195F0750181020508190129E3
:1005200005950575019102950175039101C00501BD
:100530000906A101050719E029E71500250195081D
:10054000750181029501750881010507190029FFD0
:10055000150026FF00950675088100050819012978
:1005600005950575019102950175039101C0090278
:100570005200030100A0FA09040000010301010078
:100580000921110100012240000705810308000A2A
:1005900009040100010300000009211101000122EA
:1005A000BC000705820320000A0904020002FF00C4
:1005B000000007058303400005070504034000050C
:1005C0001201100200000008973276490100010272
:1005D000030104033000000020034500720067009F
:1005E0006F0044006F007800200045005A00200092
:1005F00047006C006F007700000030035A00530082
:100600004100200054006500630068006E006F0028
:100610006C006F006700790020004C0061006200F0
:100620007300200049006E00630000000403090409
:10063000050F3900021C100500DF60DDD88945C7B1
:100640004C9CD2659D9E648A9F00000306B20045C3
:10065000001810050038B60834A909A0478BFDA082
:10066000768815B665000142000011241FBECFEF49
:10067000DAE0DEBFCDBF26E0A2EBB3E001C01D9201
:10068000AE35B207E1F713E0A0E0B1E0EAE5F1E64C
:1006900002C005900D92A23BB107D9F70E943E29F6
:1006A0000C944C300C940000E8EDF0E080818E7FDB
:1006B00080831092E2001092DA001092E100A0EE26
:1006C000B0E08C9181608C9380818F77808319BC9E
:1006D000A7EDB0E08C918E7F8C9380818F7E80839C
:1006E0001092210608952091E4003091E50095E6EE
:1006F000A9012091EC00822F817020FF06C080911B
:10070000E80080FF06C080E008952091E80022FD07
:100710001AC080914706882389F0853089F080913E
:10072000EB0085FD0FC02091E4003091E5004217F9
:100730005307F9F29150E1F684E0089582E00895BC
:1007400083E0089581E00895EF92FF920F931F9345
:10075000CF937C018B010E947303C82F882371F013
:100760008C2FCF911F910F91FF90EF900895F7017B
:1007700081917F018093F10001501109011511054C
:1007800079F38091E80085FDF2CF8091E8008E77C3
:100790008093E8000E947303882381F3C82FE0CF81
:1007A0008091490687FF13C08091E80082FF06C050
:1007B0008091E8008B778093E80004C08091470621
:1007C0008111F2CF0895809147068823D9F3809153
:1007D000E80080FFF8CF8091E8008E77ECCF982F6B
:1007E0009093E900242F762F50E0891731F0709113
:1007F000EC002091ED005091F00021FD07C09F5FBB
:10080000973071F78093E90081E008953091EB0013
:100810003E7F3093EB003091ED003D7F3093ED0053
:100820003091EB0031603093EB007093EC0020933B
:10083000ED005093F0002091EE0027FDE0CF80E026
:100840000895CF92DF92EF92FF920F931F93CF9371
:10085000DF93C8EDD0E088818F7E8883E7EDF0E0FC
:1008600080818160808384E082BF81E08093210663
:1008700088818E7F888302EE10E0F801108210924A
:10088000DA0081EEC82ED12CF601108288818F7794
:10089000888388818068888388818F7D888319BC5C
:1008A000109247061092480610924606109245068E
:1008B00090EEE92EF12CF70180818B7F8083888177
:1008C0008160888342E060E080E00E94EF03F601EF
:1008D00080818E7F8083F801808181608083808128
:1008E00088608083F70180818E7F8083888180612A
:1008F0008883DF91CF911F910F91FF90EF90DF9050
:10090000CF900895FC0180914F0690915006861774
:100910009707A0F06115710529F48091E8008E77A2
:100920008093E80090E06115710551F4911108C0C1
:100930008091E80082FF35C080E00895BC01F2CFCD
:10094000809147068823C9F18530C9F18091E8007C
:1009500083FD31C08091E80082FDEACF8091E800FC
:1009600080FFE1CF8091F3002091F200382F6115D4
:10097000710519F02830310558F091E02830310523
:1009800009F090E08091E8008E778093E800CBCF6B
:1009900084918093F1003196615071092F5F3F4F30
:1009A000E6CF80914706882341F0853041F0809161
:1009B000E80083FFBDCF81E0089582E0089583E0E1
:1009C0000895FC0180914F06909150068617970775
:1009D000A0F06115710529F49091E8009E7790933D
:1009E000E80090E06115710551F4911108C0809103
:1009F000E80082FF34C080E00895BC01F2CF80910E
:100A000047068823C1F18530C1F18091E80083FD5C
:100A100030C08091E80082FDEACF8091E80080FF3D
:100A2000E1CF8091F3002091F200382F611571051C
:100A300019F02830310558F091E02830310509F0DF
:100A400090E02091E8002E772093E800CBCF8191B1
:100A50008093F100615071092F5F3F4FE7CF809184
:100A60004706882341F0853041F08091E80083FFFC
:100A7000BECF81E0089582E0089583E008958091DB
:100A80002406089520914706243099F423E020930A
:100A9000E90070E050E040E00E94A403882321F0C8
:100AA00010921F06109220068091E8008E778093A6
:100AB000E800089590910606803F59F4809107065A
:100AC00087FF0DC01092070691110BC0109201060E
:100AD00008C0813F81F48091070618169CF3992382
:100AE00081F08091080690910906892B09F064C075
:100AF0001092FE050895823F49F497FFF0CF1092BF
:100B00000606809107068111ECCFE0CF833F19F4F0
:100B10001916ACF3E4CF20910806893F29F4121688
:100B2000F4F610920806DBCF8A3F19F427FFD7CFDF
:100B3000F8CF209109068B3F29F427FFD0CF1092E0
:100B40000906CDCF8C3F19F41216CCF3C8CF843FE1
:100B500031F4809105068E7F80930506C0CF853FD6
:100B600021F4809105068D7FF7CF863F21F4809197
:100B700005068B7FF1CF873F21F480910506877FA3
:100B8000EBCF883F21F4809105068F7EE5CF8D3F26
:100B900031F48091D2058E7F8093D205A0CF8E3F15
:100BA00021F48091D2058D7FF7CF8F3F09F097CF49
:100BB0008091D2058B7FF0CF08958091D20580FD82
:100BC0001AC081FD14C082FD14C08091FE058823E7
:100BD00091F08C3370F427E0829FC00111246CE304
:100BE00070E00E94F02D862F672B29F0089583E096
:100BF000089587E0089581E008958091D20580FDF1
:100C000016C081FD16C082FD18C0809101068823A0
:100C100091F08C3390F423E2829FC00111246CE3A5
:100C200070E00E94F02D862F672B49F0089588E030
:100C3000089581E1089585E0089583E2089581E0B3
:100C40000895803F31F40E94FD0581958093070649
:100C50000895813F19F40E94FD05F8CF823F31F4D9
:100C60000E94FD058195809306060895833F19F43F
:100C70000E94FD05F8CF893F29F40E94DD0580938D
:100C8000080608958A3F21F40E94DD058195F7CF7B
:100C90008B3F31F40E94DD0581958093090608950C
:100CA0008C3F19F40E94DD05F8CF843F31F4809128
:100CB00005068160809305060895853F21F48091A3
:100CC00005068260F7CF863F21F480910506846097
:100CD000F1CF873F21F4809105068860EBCF883FF4
:100CE00021F4809105068061E5CF8D3F31F480913C
:100CF000D20581608093D20508958E3F21F48091C2
:100D0000D2058260F7CF8F3FB9F78091D20584601A
:100D1000F1CF9C014FB7F8948091CE059091CF050B
:100D2000A091D005B091D1054FBF821B930B0895C0
:100D3000209118012223C9F02091EB0527FF15C04F
:100D4000E62FE695E695E695EE31D8F4E80FF92F13
:100D5000F11D677021E030E001C0220F6A95EAF7CB
:100D600020958281282322830895FC0132960896DB
:100D70002191621303C0DF0111971C92E817F90754
:100D8000B9F70895209118012223C1F02091EB05B5
:100D900027FF14C0E62FE695E695E695EE31F8F4C8
:100DA000E80FF92FF11D677021E030E001C0220F3C
:100DB0006A95EAF78281822B82830895FC0132963C
:100DC0002FEF30E04191641751F02F3F19F441119A
:100DD00001C0232F3F5F3630A9F72F3F09F4089554
:100DE000820F911D27FD9A95FC0162830895CF9291
:100DF000DF92EF92FF926C01EE24FF2420E0C114F9
:100E0000D104E104F10419F0C701B60120E1C72EB5
:100E1000D82EE92EFF24C114D104E104F10419F005
:100E2000285FC701B6016B017C0154E0F694E7949A
:100E3000D794C7945A95D1F7C114D104E104F104B1
:100E400019F02C5FC701B6016B017C0142E0F694FA
:100E5000E794D794C7944A95D1F7C114D104E1041B
:100E6000F10419F02E5FC701B60196958795779525
:100E70006795672B682B692B09F02F5F822FFF90F6
:100E8000EF90DF90CF9008958091C9058111109265
:100E9000C90508958091C8059091C705892B909147
:100EA000C605892B8093B2039091C9059923A1F0BF
:100EB000892B8093B20380911801882341F180919E
:100EC000EB0587FF24C08EE1E4EBF3E090E0815076
:100ED00000F591110E944407E091ED05F091EE05B7
:100EE0003097E1F080911801882359F08091EB054B
:100EF00087FF07C08091B2038093B30385E080939E
:100F0000B2030280F381E02D82EB93E0099486E046
:100F1000DBCF21912223D9F29F5FD9CF0895E92F0A
:100F2000EE0FE90FEE0F8E0F982F9770869586952E
:100F3000869525E0829FF0011124E257FA4F50E098
:100F400040E080E0219130E0092E02C036952795DF
:100F50000A94E2F721703327042E01C0220F0A946D
:100F6000EAF7822B4F5F5F4F4530510559F70895DF
:100F7000E92FEE0FE90FEE0F8E0F982F977041E0DB
:100F800001C0440F9A95EAF786958695869595E077
:100F9000899FF0011124E257FA4F30E020E070E021
:100FA0005191DF011197CB01022E02C096958795D2
:100FB0000A94E2F7817081958527842385278C9395
:100FC0002F5F3F4F2530310559F7089580918D05EA
:100FD00090915C05981301C008958F5F8770FACFD8
:100FE000882341F080959091C70589238093C70598
:100FF0000C944A070895882339F09091C705982BDF
:101000009093C7050C944A070895882341F0809572
:101010009091C80589238093C8050C944A070895C8
:10102000882339F09091C805982B9093C8050C94AB
:101030004A07089520914005309141052817390746
:1010400071F09093410580934005E091ED05F0919A
:10105000EE05309721F00084F185E02D0994089584
:1010600020913E0530913F052817390771F0909384
:101070003F0580933E05E091ED05F091EE05309738
:1010800021F00680F781E02D09940895E091ED05A7
:10109000F091EE05309721F00190F081E02D099458
:1010A00080E00895FA01811101C0FB0109948033A9
:1010B000910538F5880F991F880F991FFC01EC5C8A
:1010C000FE4F5281338180818370E181A82FB0E08F
:1010D00070E9879FC00111248A509C4FE80FF92FB7
:1010E000F11DB4976083FC01E50FF11DB4974083B7
:1010F000830F911DFC01B4972083AC50BC4F81E05D
:101100008C930895FF920F931F93CF93DF93182F23
:10111000062FF42ED0E0C0E02F2D402F612FCE01FE
:101120000E9457082196C033D105B1F7DF91CF91C6
:101130001F910F91FF9008950C9482080C9457080A
:101140000F931F9310E0F801EE0FFF1FEF5DFC4FB0
:101150009081905797FD9195000F111FF801EE5D5A
:10116000FC4F00810052110B2003F001219FF00D74
:10117000112408E310E0091B110997FD13954003A2
:101180009001419F300D1124E20FF31F9F01220FA8
:10119000331F2E0F3F1F37FF02C021583F4F220F32
:1011A000232F221F330B620F1F910F9108950F936E
:1011B0001F93522F10E0F801EE0FFF1FEE5DFC4F62
:1011C000A081A052BB0B9D015203F001539FF00D73
:1011D0001124000F111FD801AF5DBC4F0C910057B7
:1011E000110B40039001419F300D11242E0F3F1F22
:1011F00037FF02C0215C3F4F96E0359527959A95C1
:10120000E1F7620F1F910F9108950F931F93522FD3
:1012100010E0F801EE0FFF1FEE5DFC4FA081A05221
:10122000BB0B9D015203F001539FF00D1124000FE1
:10123000111FD801AF5DBC4F0C910057110B40033B
:101240009001419F300D11242E0F3F1F37FF02C028
:1012500021583F4F220F232F221F330B620F1F9164
:101260000F910895EF920F93972F23E0029FB00103
:101270001124759567956E0D792F0F91EF90089554
:10128000322F50E0FA01EE0FFF1FEE5DFC4F908110
:10129000905297FD9195440F551FFA01EF5DFC4F59
:1012A0002081231B330B290F311D97FD3A95620FC7
:1012B0000895E42FF0E0EE0FFF1FEE5DFC4F60811C
:1012C000621B0895E42FF0E0EE0FFF1FEF5DFC4F6F
:1012D0006081621B0895622F0895E42FF0E0EE0F05
:1012E000FF1FEF5DFC4F408134EE439F412D1124E1
:1012F000E82FF0E050E0445E5F4FDA01A21BB10935
:101300009D01B7FF03C031952195310993E0220F6C
:10131000331F9A95E1F7AF01421B530B9A0157FD1A
:1013200020E0582F259F212D1124822F0895E42F8E
:10133000F0E0EE0FFF1FEF5DFC4F408134EE439F66
:10134000412D1124E72FF0E050E0445E5F4FDA01B9
:10135000A21BB1099D01B7FF03C031952195310949
:1013600093E0220F331F9A95E1F7AF01421B530B15
:101370009A0157FD20E0279F212D1124722F0895F7
:10138000FC019B01009729F480E077FF2BC080E8E7
:101390000895AC0197FF04C044275527481B590BFB
:1013A000B901640F751F37FD10C0241B350BC9012F
:1013B000A5E0880F991FAA95E1F70E94F02D80E221
:1013C000861BF7FF0FC081950895CB0165E0880F5C
:1013D000991F6A95E1F7BA01621B730B0E94F02D09
:1013E00080E6EECF0895EF920F93CF93DF93D72F40
:1013F000C82FC9010E19BA010E94C009602F681BCD
:101400007D2F8C2FDF91CF910F91EF9008950F9347
:10141000CF93DF93D72FC82FC901BA010E94C0090B
:10142000682F600F7D2F8C2FDF91CF910F91089542
:10143000EF920F931F93CF93DF93D62FC72F182FC1
:10144000C9010E19010FBA010E94C009081B202F03
:10145000219F212D1124822F6D2F7C2FDF91CF9181
:101460001F910F91EF900895EF920F931F93CF93D9
:10147000DF93D62F172FC82FC9010E19070FBA01F6
:101480000E94C009702F781B719F712D11246D2F40
:101490008C2FDF91CF911F910F91EF9008950F93B3
:1014A0001F93CF93DF93D62FC72F182FC901212F5A
:1014B000201B022FBA010E94C009982F990F990F83
:1014C000891B800F282F219F212D1124822F6D2F02
:1014D0007C2FDF91CF911F910F9108950F931F9350
:1014E000CF93DF93D62F172FC82FC901272F201B8B
:1014F000022FBA010E94C009982F990F990F782FD7
:10150000791B700F719F712D11246D2F8C2FDF911E
:10151000CF911F910F910895E82F86FDE0952E2F12
:101520002F7086FD2F5FE695E695E695E670F0E074
:10153000E45DFE4F9181929F902D212D1124929573
:101540009F702295207F922B2081920F87FD91958D
:1015500080E8890F0895AC018230910508F4089560
:101560009FEF413E8EE1580740F49A0195E0369591
:1015700027959A95E1F798E0920F61E0E62FE90F41
:10158000FF27FF1F9F0135952795822F229FF0018E
:10159000239FF00DF00D11244E175F0738F49FEFD5
:1015A000920F961758F78FEF860F08952F3FE9F3A4
:1015B00061E0620FF6CF0F93CF93DF93D72FC82F41
:1015C00047FD419588E390E0841B910947FD939581
:1015D000889FB001899F700D700D1124229FC0015A
:1015E000239F900D900D1124860F971F0E94AB0A28
:1015F000982F990F890F682F600F7D2F8C2FDF9107
:10160000CF910F91089530E020E0869F212D969F85
:10161000200D311D1124C9010895AF92BF92CF92C0
:10162000DF92FF920F931F93CF93DF93362F472FB5
:10163000E82FF0E0E455FF4F71110FC0E4918E2FB9
:101640002E2F6E2F722FDF91CF911F910F91FF9050
:10165000DF90CF90BF90AF900895C72FD0E0249136
:10166000F22E022F10E056E0659FC0011124EFEF2B
:10167000F0E0BF010E94DC2D832F90E0880F991FBE
:1016800035E5369FD001379FB00D11248A1B9B0B87
:10169000982F990F980F6F01CC1ADD0AC09ED001C8
:1016A000C19EB00DD09EB00D11248B2F499FA0017B
:1016B0001124452F55276F01C41AD50AC09EA001D9
:1016C000C19E500DD09E500D11245F01A91AB10882
:1016D000AC9E6001AD9ED00CBC9ED00C1124CD2CD4
:1016E000DD24EC19FD09E09FE001E19FD00DF09FA2
:1016F000D00D1124ED2F62307105A1F050F4611569
:10170000710509F49ECF6130710581F0EB2F852FB3
:1017100098CF6430710569F080F06630710509F486
:1017200090CFF4CFE22F2B2F8D2F8BCFE22F252FB1
:1017300088CFEB2F822F2D2F84CF2B2F8F2DE52FAE
:1017400080CF9F92AF92BF92CF92DF92EF92FF92A3
:101750000F931F93CF93DF936C0180911901C82FD2
:10176000CC0FCC0FC80F15E01C0FB12E113310F0A9
:1017700030E3B32E609159066695669580915106C7
:10178000909152060E94030BF82E80E48F0D0E9468
:101790008C0A90E8A92EA80E8F2D0E948C0A20E8B2
:1017A000922E980ED0E0CB1580F081E0103308F037
:1017B00080E0DF91CF911F910F91FF90EF90DF902C
:1017C000CF90BF90AF909F900895FE01EF57FC4FD0
:1017D000808190911A018923A1F060915606709141
:1017E000570680915806EF2C0C2F292D4A2DF60113
:1017F00009950E940D0B462F282F672FCE010E94BE
:101800009E082196D0CF7F928F929F92AF92BF92E7
:10181000CF92DF92EF92FF920F931F93CF93DF93BC
:101820005C0180911901C82FCC0FCC0FC80F15E0B7
:101830001C0FF12E113310F030E3F32E6091590696
:10184000669580915106909152060E94030B782E66
:10185000D0E0CF1590F081E0103308F080E0DF9108
:10186000CF911F910F91FF90EF90DF90CF90BF909D
:10187000AF909F908F907F900895FE01EF57FC4F9F
:10188000808190911A018923C9F1CE01880F991F97
:1018900083539D4FFC01EC5AFF4F2081422F40574C
:1018A000550B6A018B5A9F4FFC018081282F2052D3
:1018B000330B4901449F9001459F300D300D112499
:1018C000889CC001899C900D900D1124820F931F5C
:1018D0000E94AB0A082F60915606709157068091BE
:1018E0005806E72C9401A601F50109950E940D0BFD
:1018F000462F282F672FCE010E949E082196A9CF40
:10190000CF92DF92EF92FF920F931F93CF93DF93CB
:101910007C0180911901C82FCC0FCC0FC80F15E0A6
:101920001C0FD12E113310F030E3D32E60915906E5
:10193000669580915106909152060E94030BC82E25
:10194000D0E0CD1568F081E0103308F080E0DF9141
:10195000CF911F910F91FF90EF90DF90CF9008955E
:10196000FE01EF57FC4F808190911A01892311F1FC
:10197000CE01880F991F83539D4FFC01EB5AFF4FF7
:1019800020812052330B8C5A9F4FFC0140814057DD
:10199000550B6091560670915706809158060C2D94
:1019A000F70109950E940D0B462F282F672FCE01B6
:1019B0000E949E082196C5CFDF92EF92FF920F936F
:1019C0001F93CF93DF937C0180911901C82FCC0F17
:1019D000CC0FC80F15E01C0F012F113308F000E3E6
:1019E00060915906669566958091510690915206D0
:1019F0000E94030BD82ED0E0C01760F081E01033B6
:101A000008F080E0DF91CF911F910F91FF90EF9050
:101A1000DF900895FE01EF57FC4F808190911A01ED
:101A2000892391F06091560670915706809158066F
:101A30002D2D4C2FF70109950E940D0B462F282FB5
:101A4000672FCE010E949E082196D6CF9091EB057C
:101A500092FF06C0282F28712830F9F4877F846010
:101A600093FF06C0282F28712831F1F4877E846106
:101A70002091EC0520FF06C0382F38713830D9F49A
:101A8000877F816021FF06C0282F28712831D1F47B
:101A9000877E816194FD877E0895282F24712430EC
:101AA000F9F68B7F8860DCCF282F2471243101F771
:101AB0008B7E8861DDCF382F3171313019F78E7F01
:101AC0008860E0CF282F2171213121F78E7E886137
:101AD000E1CFCF93DF93972F70E026E0929F600DC8
:101AE000711D1124FB0134E5839FE00DF11D1124CC
:101AF000EE0FFF1FE455FE4FC591D491CE01C238C1
:101B0000D105B9F1E8F5C133D10509F499C050F513
:101B1000C932D10509F48DC0CA32D10509F497C084
:101B2000C11542E5D40708F0C4C0C11521E5D207AC
:101B300008F038C1C83ED10508F09DC0C03ED105AF
:101B400068F5C83AD10508F089C0C53AD10508F052
:101B500005C1C130D10511F1209709F443C0249784
:101B6000E8F440C0C533D10509F45CC0C933D105E0
:101B7000B9F62091EB05237089F080EE90E00EC05D
:101B8000C33ED10591F168F4C03ED105F9F0C23EE3
:101B9000D10531F62091EB0522FD20C0DF91CF91D8
:101BA0000895C63ED10561F1C73ED10581F1C43E1D
:101BB000D10509F0B5CF2091EC0521FFEFCF809141
:101BC000EB0584FD0FC087EE90E0E8CF2091EB0598
:101BD00020FD19C13091EC0530FFE0CF83EE90E09D
:101BE00024FFDCCF90E080E0D9CF2091EB0522FDEF
:101BF0000DC13091EC0530FDC0CF24FFCFCFF2CF27
:101C00002091EB0523FFCACF24FDECCFDCCF209140
:101C1000EB0523FDFEC03091EC0531FFEECF84EEE5
:101C200090E0BCCF2091EB0525FFB8CF89E290E092
:101C3000B5CF2091EB0525FFB1CF85E390E0AECF86
:101C40002091EB0526FFAACF8AE290E0A7CF209152
:101C5000EB0526FFA3CF81E390E0A0CFCF3BD105DA
:101C600008F6C85AD0E0CC0FDD1FC156DD4F888181
:101C70009981946493CFC11530E2D30760F4C11504
:101C800041E0D40708F08ACFCE019065C03FD1056E
:101C900008F084CFA7CFC11580E4D80708F4A2CFFD
:101CA000C11590E5D90708F061C0CE019F70906A18
:101CB00075CFC11526E5D20718F5C11535E5D3074F
:101CC00008F086C0C11544E5D40708F07CC09C2FFD
:101CD00096959695AE0143705527C115D34508F4E6
:101CE00066C021E030E002C0220F331F4A95E2F7C0
:101CF00040E2949FC0011124822B932B9A684ECF0F
:101D0000C1159AE5D90778F4C11529E5D20708F07D
:101D100069C0C11538E5D30708F464CF9C2F882724
:101D2000806F906A3BCFC1154BE5D40708F45ACFBA
:101D3000C1158CE5D80708F462C0CE019056811514
:101D4000904208F04FCF8D2F8F710E94260D90E0AA
:101D5000982F882788279F718C2B42C0C55AD0E0C6
:101D6000C456DD4F888190E0906418CF9E01E4E076
:101D700036952795EA95E1F723708C2F8695869501
:101D8000837030E2839FC0011124922BC37021E045
:101D900030E002C0220F331FCA95E2F7822B932B4B
:101DA0009C68FCCE9C2F8827816F906AF7CE21E03B
:101DB00030E002C0220F331F4A95E2F740E2949FC1
:101DC000C0011124EBCF9C2F8827846F906AE6CE48
:101DD0008C2F0E94260D90E0982F882788279F71CE
:101DE0009062DCCE8C2F8F700E94260D34E0D69549
:101DF000C7953A95E1F7CF709C2F9069CFCECE0171
:101E000099279066CBCE89E390E0C8CE82EE90E031
:101E1000C5CE86EE90E0C2CEBF92CF92DF92EF9217
:101E2000FF920F931F93CF93DF938C01C0901A06FC
:101E3000D0901B06E0901C06F0901D068091CA050C
:101E40009091CB05A091CC05B091CD05C82AD92A97
:101E5000EA2AFB2ACFE1D0E0BC2ED701C6010C2E26
:101E600004C0B695A795979587950A94D2F780FDFB
:101E70000EC0219788F7B12C8B2DDF91CF911F9148
:101E80000F91FF90EF90DF90CF90BF900895B80131
:101E90008C2F0E94690D019761F3EECFCF93DF93F2
:101EA000EC010E940C0FBE01DF91CF910C94690DE3
:101EB0000E944E0F292F2F7092959F7092509E3046
:101EC00078F4E92FF0E0E25BFF4C0C94042E803FA5
:101ED00019F020F4883E20F481E00895843FE1F376
:101EE00080E00895883EC0F3813FD1F7F5CF822F7F
:101EF000869586958695089527982F980895269813
:101F00002E98089525982D98089556985E980895CE
:101F1000279A2F9A0895269A2E9A0895259A2D9AEF
:101F20000895CF92DF92EF92FF92CF936B017C01E5
:101F30000E94F706C82F0E94850F0E94820F0E9400
:101F40007F0F0E947C0FC150C73040F4EC2FF0E0AF
:101F5000E45AFF4C0C94042E0E948E0FC701B60168
:101F6000CF91FF90EF90DF90CF9008950E948E0F59
:101F70000E948B0FF3CF0E948E0F0E94880FEECF2E
:101F80000E948E0F0E948B0FF8CF209828982198DE
:101F9000299822982A9823982B9852985A985398BF
:101FA0005B983E98469808958098889A8198899A77
:101FB00084988C9A85988D9A86988E9A87988F9A0D
:101FC0000895CF9384E090E00E94A12FC82F81E272
:101FD00090E00E94A12F982F8C2FCF910895CF933E
:101FE000DF9300D00F92CDB7DEB7909147069430C3
:101FF00019F589837B836A8382E08093E9008FEF00
:102000009091E800815095FD06C095ED9A95F1F705
:1020100000008111F5CF8091E80085FF0DC050E0F0
:1020200040E063E070E0CE0101960E94A40380913D
:10203000E8008E778093E8000F900F900F90DF916B
:10204000CF910895BC0184E00C94EF0FBC0183E0B4
:102050000C94EF0F9C0182E08093E9009FEF809148
:10206000E800915085FD06C085ED8A95F1F70000E6
:102070009111F5CF8091E80085FF0CC050E040E061
:1020800066E070E0C9010E94A4038091E8008E77A9
:102090008093E8000895CF93DF93EC0180911801BD
:1020A0008823B1F18091EB0587FF32C060E282E0C6
:1020B0008093E9008FEF9091E800815095FD06C074
:1020C00095ED9A95F1F700008111F5CF8091E80028
:1020D00085FF1BC08091180170E050E040E0811145
:1020E00004C050E040E068E070E0CE010E94A4032C
:1020F0008091E8008E778093E80080E2FE01A5E2FF
:10210000B6E001900D928A95E1F7DF91CF910895A5
:1021100068E081E0CDCFEF92FF920F931F93CF93B2
:10212000DF930E94850F0E94820F0E947F0F0E9402
:102130007C0F88E8E82EF12C8FEF90E0F701918377
:1021400080830AE810E0F80191838083CCE8D0E036
:10215000998388830E948E0FFFEF20E782E0F15081
:1021600020408040E1F700C000000E948B0F9FEFED
:10217000E0E7F2E09150E040F040E1F700C00000FD
:102180000E94880F2FEF80E792E02150804090401E
:10219000E1F700C000000E94820FEFEFF0E722E0BD
:1021A000E150F0402040E1F700C000000E947F0FA6
:1021B0008FEF90E7E2E081509040E040E1F700C00F
:1021C00000000E947C0F8091D9058770FFEF8F9FE0
:1021D000C001112495958795959587959927F701C5
:1021E00091838083F80191838083998388830E94FF
:1021F000850F0E94820F0E947F0FDF91CF911F9168
:102200000F91FF90EF900C947C0F6FEE7EEF90E0BB
:1022100080E00E94E32F60E082E090E00E94C52F02
:1022200060E083E090E00E94C52F1092CA051092F2
:10223000CB051092CC051092CD0560E084E090E0D3
:102240000E94C52F60E081E290E00E94C52F60E00F
:1022500085E090E00E94C52F60E086E090E00E945B
:10226000C52F6FEF87E090E00E94C52F40E050E05F
:10227000BA0188E090E00E94D72F60E08DE090E006
:102280000E94C52F40E050E0BA0188E190E00E9432
:10229000D72F60E087E190E00E94C52F40E050E03A
:1022A000BA018CE190E00E94D72F60E080E290E0DC
:1022B0000E94C52F1092D9051092DA051092DB0505
:1022C0001092DC0584E080618093D9054091D905A6
:1022D0005091DA056091DB057091DC058FE090E0AC
:1022E0000E94D72F40E050E0BA0183E190E00C94C7
:1022F000D72F0F931F93CF93DF93082F000FEB017E
:1023000014E21093E003E1EEF3E0DE018D9181939E
:1023100083E0E13FF807D1F724E630E041E150E007
:1023200060EE73E0802F0E94B12D105F6096143B29
:1023300041F7DF91CF911F910F9108958091F403A0
:10234000882329F066EF73E084E70E9479111092E8
:10235000F4038091F503882329F066E874E087E7A9
:102360000E9479111092F5030895E0EEF3E0608386
:10237000418324E630E042E050E0BF01880F0C9436
:10238000B12D0F931F93CF93DF93082FE62FF0E02B
:10239000E65CFA4F8081882379F082E1689FE00152
:1023A0001124CA5EDA4F10E04991612F802F0E94FC
:1023B000B5111F5F1231C1F7DF91CF911F910F91BE
:1023C0000895CF93DF93C82F4BE06DEF0E94B511B6
:1023D00040E06AE08C2F0E94B5118FE39CE90197E1
:1023E000F1F700C0000040E060E08C2F0E94B511C2
:1023F00040E061E08C2F0E94B51140E066E08C2F38
:102400000E94B51140E06DEF8C2F0E94B511D0E015
:1024100040E06D2F8C2F0E94B511DF5FD231C1F7E4
:1024200040E06D2F8C2F0E94B511DF5FD432C1F7D1
:1024300040E06D2F8C2F0E94B511DF5FD43BC1F7B8
:102440004BE06DEF8C2F0E94B51141E06AE08C2FBC
:102450000E94B51140E06DEF8C2FDF91CF910C946D
:10246000B5116F927F928F929F92AF92BF92CF924F
:10247000DF92EF92FF920F931F93CF93DF930E940F
:10248000FC2C84E70E94E11187E70E94E11164E3DC
:10249000E62E61E0F62ED12CC12C72E1772EE8E019
:1024A0008E2E912CAA24A394B12C66246394F70158
:1024B000418150E0CA01849702810452110BC3810B
:1024C000C452DD0BF601EE0FFF1FEE0FFF1FEC5C99
:1024D000FE4F2081237030E0FC0197FD379643E0EA
:1024E000F595E7954A95E1F7729EA001739E500D10
:1024F00011244A5E5A4FE40FF52FF11DB4010E94DA
:10250000F02DA50101C0440F8A95EAF78081842B44
:102510008083F80117FD379693E0F595E7959A9536
:10252000E1F7729EC001739E900D11248A5E9A4F4E
:10253000E80FF92FF11DC801B4010E94F02DA5018B
:1025400001C0440F8A95EAF78081842B8083FE01C5
:10255000D7FD379683E0F595E7958A95E1F7729E6A
:10256000C001739E900D11248A5E9A4FE80FF92FD7
:10257000F11DCE01B4010E94F02DA50101C0440F50
:102580008A95EAF78081842B8083265C3A4FF90193
:102590006082FFEFCF1ADF0A84E0E80EF11CE0E36F
:1025A000CE16D10409F083CF60E084E70E94C11108
:1025B00061E087E7DF91CF911F910F91FF90EF903E
:1025C000DF90CF90BF90AF909F908F907F906F9053
:1025D0000C94C1111F93CF93DF93EC01FC01EF57D3
:1025E000FC4F80816823A1F00E94562E182F0E9474
:1025F000562E612F782F809158060E940D0B462F82
:10260000282F672FCE01DF91CF911F910C949E0848
:10261000DF91CF911F910895DF92EF92FF920F9378
:102620001F93CF93DF938C01FC01EF57FC4F808108
:10263000682381F1D0905706D0915806C091560674
:10264000EC2EF12C0E94562E282FC7018C549F4F40
:1026500068E671E00E94F02D8E199F0997FD0396A0
:10266000959587959595879523706C2F289F600D7C
:1026700011247D2D8D2F0E940D0B462F282F672FA3
:10268000C801DF91CF911F910F91FF90EF90DF90E4
:102690000C949E08DF91CF911F910F91FF90EF90C6
:1026A000DF90089545E050E06CE170E085E596E04C
:1026B0000C94B52F90915506937041F08093560677
:1026C00060935706409358060C9452130895E5E51D
:1026D000F6E0438120E1421B08F440E08181628101
:1026E00090E00C945A13E5E5F6E0438120E1420FB7
:1026F00008F44FEF8181628190E00C945A13E5E574
:10270000F6E0628120E1621B08F460E08181438190
:1027100090E00C945A13E5E5F6E0628120E1620F47
:1027200008F46FEF8181438190E00C945A13E5E542
:10273000F6E08181438162818850990B0C945A1391
:10274000E5E5F6E0818190E04381628108960C9492
:102750005A1390915506937089F0811107C09460C7
:102760009093550610921C010C945213893110F06D
:102770009066F6CF880F880F982BF2CF089580913E
:10278000550686958695815009F488E10C94A91325
:1027900080915506869586958F5F893108F081E096
:1027A0000C94A9130C94A913E5E5F6E0248130E11B
:1027B000230F08F42FEF24830C945213E5E5F6E081
:1027C000248130E1231B08F420E024830C9452136D
:1027D000E5E5F6E085E3808380911D0190911E017F
:1027E000A0911F0181839283A3838CE384830C9443
:1027F00052130E94311290E080E00E94AF2F8F3E72
:102800009E4F21F00E9405110E94E81345E050E020
:102810006CE170E085E596E00E94912F809155066D
:102820008C7F11F40C94E813089580E290E090936B
:102830000D0180930C018091D20381110EC00E9482
:10284000FC2C81E08093D2032FEF83ED90E32150A5
:1028500080409040E1F700C0000064E670E080E452
:102860000E94022D90930D0180930C01892B09F099
:102870004EC064E670E080E00E945E2D90930D01F2
:1028800080930C01892B09F042C064E670E080E07F
:102890000E945E2D90930D0180930C01892BB9F558
:1028A00064E670E08FE30E945E2D90930D018093AB
:1028B0000C01892B61F50E94D82D64E670E080E45C
:1028C0000E94022D90930D0180930C01892BF9F445
:1028D00064E670E08CE00E945E2D90930D01809381
:1028E0000C01892BA1F464E670E080E00E945E2D6B
:1028F00090930D0180930C01892B49F464E670E0FC
:102900008FE30E945E2D90930D0180930C010E9435
:10291000D82D80910C010895CF93C82F873070F582
:1029200080910C0190910D01892B89F564E670E08E
:1029300080E40E94022D90930D0180930C01892B5D
:10294000D1F464E670E082E10E945E2D90930D0167
:1029500080930C01892B79F481E090E001C0880F0D
:10296000CA95EAF764E670E080950E945E2D909328
:102970000D0180930C01CF910C94D82D8A30B9F0C1
:1029800040F4883071F0893079F0209A2898CF91FE
:1029900008958C3091F070F08D30B9F73E9A4698DA
:1029A000F6CF219A2998F3CF229A2A98F0CF239A2A
:1029B0002B98EDCF529A5A98EACF539A5B98E7CF6B
:1029C000CF93873050F580910C0190910D01C0E0BC
:1029D000892B71F464E670E081E40E94022D9093EB
:1029E0000D0180930C01892B31F0C0E00E94D82D9D
:1029F0008C2FCF91089584E690E00E948D2D97FF53
:102A000005C090930D0180930C01EFCFC82FC095A6
:102A100010920D0110920C01E9CFCFB18FB18695C4
:102A200086958C73C3708C2BC82FC095E1CF78949A
:102A30001F921FB61F9211248F939F93AF93BF9342
:102A40008091CE059091CF05A091D005B091D10590
:102A50000196A11DB11D8093CE059093CF05A09343
:102A6000D005B093D105BF91AF919F918F911F90E9
:102A70001FBE1F9018952FB7F8948091CE059091A6
:102A8000CF05A091D005B091D1052FBF08950E9428
:102A90003B159C019091060680910706982B21F02A
:102AA0003093030620930206909108068091090650
:102AB000982B21F0309300062093FF05E091ED055F
:102AC000F091EE05309749F082E08093040604808F
:102AD000F581E02D84E096E0099408951092C705F1
:102AE0001092C6050E944A0786E0E4E0F6E0DF01A6
:102AF0001D928A95E9F7109201061092FE05109238
:102B0000D2050E94471590E080E00E94300890E0D6
:102B100080E00C941A08CF92DF92EF92FF92CF934D
:102B2000DF9300D000D0CDB7DEB70E94910F6B01CC
:102B30007C0180911E06882321F080911F0681115F
:102B400015C0C0921A06D0921B06E0921C06F092A5
:102B50001D060E946E150F900F900F900F90DF9141
:102B6000CF91FF90EF90DF90CF900895198282E08F
:102B70008A83C701B6010E94F7068B838EEF8C8390
:102B800064E0CE0101960E944205DBCF0F931F93B4
:102B900041E050E060E070E004C0440F551F661F44
:102BA000771F8A95D2F7CB01BA0160957095809511
:102BB000909500911A0610911B0620911C063091E9
:102BC0001D0660237123822393231F910F910C9480
:102BD0008B159091C505809589238093C505282F75
:102BE000277071F4282F082E000C330B9217130650
:102BF00039F08595859585950E94C6151092C50575
:102C000008950F931F9341E050E060E070E004C02E
:102C1000440F551F661F771F8A95D2F780911A06B9
:102C200090911B06A0911C06B0911D068A019B0184
:102C3000082B192B2A2B3B2BC901B8011F910F918F
:102C40000C948B156093CA057093CB058093CC05CB
:102C50009093CD050C946E151092C80580911801C3
:102C6000E4EBF3E0882359F08091EB0587FF07C080
:102C70008EE1DF011D928A95E9F70C946E1586E0CE
:102C8000F8CF1F93CF93DF93CDB7DEB7AA970FB6D8
:102C9000F894DEBF0FBECDBF89E496E02091F1002D
:102CA000FC012193CF01F6E081359F07B9F78091B0
:102CB0004A06893009F444C018F5823009F4B7C0D7
:102CC000833009F46CC0813031F580914906813A36
:102CD00011F58091E800877F8093E80080914D0690
:102CE00090914E06892B41F560E285E296E070E016
:102CF0000E94E1048091E8008B778093E8000BC08C
:102D00008B3009F469C008F481C0823409F4A0C092
:102D1000853409F4BAC08091E80083FF65C28091D0
:102D2000490690914A069A3008F05EC2E92FF0E019
:102D3000ED59FF4C0C94042E60E090E080E0D7CF7A
:102D400080914906813239F780914D0690914E0667
:102D5000029708F78091E800877F8093E8008091D0
:102D6000E80082FF17C09091F3008091F200029773
:102D700029F48091F1008B7F813021F48091F10062
:102D8000809324068091E8008B778093E8000E946E
:102D9000D003C1CF809147068111E1CFBCCF809194
:102DA0004906813A09F0B7CF80914D0690914E06C1
:102DB000892B09F0B0CF8091E800877F8093E800ED
:102DC0008091E80080FFFCCF809118018093F10092
:102DD0008091E8008E77D9CF80914906813209F041
:102DE0009ACF80914D0690914E06892B09F093CF92
:102DF0008091E800877F8093E8000E94D003809153
:102E00004B06809318010E942C1685CF80914906AD
:102E1000813209F080CF8091E800877F8093E800BD
:102E20000E94D00380914C068093230674CF80913A
:102E30004906813A09F06FCF8091E800877F80933F
:102E4000E8008091E80080FFFCCF80912306BECF90
:102E500080914906803C09F05ECF80914D069091AB
:102E60004E06029739F580914B0690914C06892BBE
:102E700009F58091E800877F8093E8006BE170E0BE
:102E800086E594E00E94820482CF80914906803CCE
:102E900009F041CF80914D0690914E06079751F46D
:102EA0008091E800877F8093E80062EB70E084EA1D
:102EB00093E0E8CF8091EB0080628093EB002BCF12
:102EC000803899F0823809F08FC180914D068F705B
:102ED000873008F089C18093E9008091EB0085FB81
:102EE000882780F91092E90006C0809145069091EC
:102EF0004606911182609091E800977F9093E800D8
:102F00008093F1001092F1008091E8008E7768C103
:102F1000882309F456C1823009F066C180914B06BE
:102F2000811159C180914D068F702FEF280F2630E7
:102F300008F05AC18093E9002091EB0020FF4BC1BB
:102F4000933031F48091EB0080628093EB0043C1B9
:102F50009091EB0090619093EB0021E030E001C094
:102F6000220F8A95EAF72093EA001092EA008091F6
:102F7000EB008860EACF811137C110914B061F77B3
:102F80008091E3008078812B8093E3008091E800BA
:102F9000877F8093E8000E94D0038091E80080FF43
:102FA000FCCF8091E30080688093E30082E0111100
:102FB00083E08093470618C18058823008F014C11E
:102FC00080914B0690914C068C3D23E09207A1F531
:102FD00083E08A838AE289834FB7F894DE011396EF
:102FE00020E03EE051E2E32FF0E050935700E491FF
:102FF00020FF03C0E295EF703F5FEF708E2F90E0EF
:10300000EA30C0F0C7968D939D932F5F243159F716
:103010004FBF8091E800877F8093E8006AE270E00C
:10302000CE0101960E94E1048091E8008B778093A5
:10303000E800DAC0C096E7CF40914D0650914E06A9
:10304000292F33272330310569F1A0F421303105D0
:1030500009F46CC062E570E08EE695E0223031053F
:1030600009F0C2C02091E800277F2093E8000E9469
:103070008204DACF2132310509F440C02232310511
:1030800009F448C02F30310509F0AEC0E2E3F6E0A4
:10309000E4916E2F70E080E396E06115710509F40C
:1030A000A3C0E0CF992781309105C1F0009771F05E
:1030B00082309105D9F0039709F096C0E2EDF5E072
:1030C000E4916E2F70E082ED95E0E7CFECE2F6E060
:1030D000E4916E2F70E08CE296E0DFCFEAEFF5E04E
:1030E000E4916E2F70E08AEF95E0D7CFE8EDF5E040
:1030F000E4916E2F70E088ED95E0CFCF411551053A
:10310000D1F04130510509F06FC069E070E089E904
:1031100095E0A8CF4115510599F04130510509F0CE
:1031200063C06CEB70E082E794E09CCF62E170E0FA
:1031300080EC95E097CF69E070E080E895E092CF71
:1031400060E470E08EE295E08DCF803809F04CC0ED
:103150008091E800877F8093E80080914806809303
:10316000F100D2CE811140C010914B061230E0F533
:103170008091E800877F8093E800109348060E94C2
:10318000D003112311F084E005C08091E30087FD96
:10319000FACF81E08093470642E061EC81E00E9433
:1031A000EF0342E261EC82E00E94EF0342E361EC54
:1031B00083E00E94EF0342E360EC84E00E94EF03AF
:1031C00013C080914B06813079F481E0933009F08F
:1031D00080E0809346061092E9008091E800877FA6
:1031E0008093E8000E94D0038091E80083FF0AC02A
:1031F0008091E800877F8093E8008091EB008062F7
:103200008093EB00AA960FB6F894DEBF0FBECDBF39
:10321000DF91CF911F9108951F920F920FB60F92D9
:1032200011242F933F934F935F936F937F938F93CB
:103230009F93AF93BF93CF93DF93EF93FF93D0917F
:10324000E900DF708091EC00C82FC17080FDC0E8FC
:103250001092E9008091F000877F8093F0007894CD
:103260000E9441161092E9008091F00088608093DE
:10327000F000CD2BCF70C093E900FF91EF91DF916B
:10328000CF91BF91AF919F918F917F916F915F91FE
:103290004F913F912F910F900FBE0F901F90189557
:1032A0001F920F920FB60F9211242F933F934F93BB
:1032B0005F936F937F938F939F93AF93BF93EF939E
:1032C000FF938091E10082FF09C08091E20082FFBC
:1032D00005C08091E1008B7F8093E1008091DA004E
:1032E00080FF24C08091D80080FF20C08091DA0048
:1032F0008E7F8093DA008091D90080FFA1C080E1A9
:1033000089BD82E189BD09B400FEFDCF81E08093D3
:10331000470680912106811109C00E9454030E9432
:1033200021048091E20084608093E2008091E100BA
:1033300080FF17C08091E20080FF13C08091E200FF
:103340008E7F8093E2008091E20080618093E200B2
:103350008091D80080628093D80019BC85E080936A
:1033600047068091E10084FF2FC08091E20084FF36
:103370002BC080E189BD82E189BD89B5982F91700C
:1033800080FFFBCF8091D8008F7D8093D800809103
:10339000E1008F7E8093E1008091E2008F7E809338
:1033A000E2008091E20081608093E2008091480613
:1033B000882309F44BC084E0809347060E942C16B2
:1033C0000E944608109222068091E10083FF27C0E8
:1033D0008091E20083FF23C08091E100877F80938A
:1033E000E10082E080934706109248068091E10058
:1033F0008E7F8093E1008091E2008E7F8093E200D7
:103400008091E20080618093E20042E060E080E031
:103410000E94EF038091F00088608093F000FF919C
:10342000EF91BF91AF919F918F917F916F915F913C
:103430004F913F912F910F900FBE0F901F901895B5
:1034400019BC109247061092210670CF8091E300BC
:1034500087FD93E090934706B1CF8823B1F19CEFAD
:10346000980F913A38F4682F82EB93E00E94980607
:103470000C944A0790E2980F983088F4877021E006
:1034800030E0A90102C0440F551F8A95E2F7CA0136
:1034900080959091C80589238093C805E9CF9BE565
:1034A000980F933020F490E080E00C94300898E579
:1034B000980F973120F490E080E00C941A08803F38
:1034C00020F00E945A050C9447150895CF93C82FF9
:1034D000882309F46EC08CEF8C0F813AB8F5809187
:1034E0001801882311F18091EB0587FF1EC0EC2F96
:1034F000E695E695E695F0E0EE54FC4F828190E08B
:103500004C2F477021E030E002C0220F331F4A9554
:10351000E2F782239323892B89F06C2F82EB93E0CF
:103520000E9498060E944A0709C0E4EBF3E08191EB
:10353000C81799F383E0EA3BF807C9F76C2F82EBD1
:1035400093E00E94C206CF910C944A0780E28C0F50
:10355000883068F4C77021E030E001C0220FCA95BE
:10356000EAF78091C805822B8093C805ECCFEBE584
:10357000EC0FE33040F4F0E0E456FD4F808190E042
:10358000CF910C943008E8E5EC0FE73150F4F0E00F
:10359000EE0FFF1FE156FD4F80819181CF910C947A
:1035A0001A08C03F30F08C2F0E942106CF910C9456
:1035B0004715CF910895CF93C82F0E94661AC9333B
:1035C00049F42FEF87EE93E0215080409040E1F7DF
:1035D00000C000008C2FCF910C942D1A0F931F93D5
:1035E000CF93DF93C42FD22FFC0182818823A1F0D7
:1035F000409351050E943B1590933D0580933C05F7
:10360000C77081E001C0880FCA95EAF7DF91CF91BA
:103610001F910F910C94100810915105141335C08F
:1036200080913C0590913D050E948906883C91055A
:1036300060F5C0E2CD0F1D17B9F080E2810F883030
:1036400040F4177081E001C0880F1A95EAF70E94D4
:103650000508C83048F481E09D2F977001C0880F9D
:103660009A95EAF70E941008802F0E94DB1AC83052
:1036700098F4D77081E001C0880FDA95EAF7DF91FE
:10368000CF911F910F910C940508C77081E001C084
:10369000880FCA95EAF7F3CFDF91CF911F910F9171
:1036A00008954F925F926F927F928F929F92AF9206
:1036B000BF92CF92DF92EF92FF920F931F93CF931F
:1036C000DF9300D000D00F92CDB7DEB77C01FC01B4
:1036D00083819481892B39F01081D180812F8D21B4
:1036E0008F3F09F006C70F900F900F900F900F902B
:1036F000DF91CF911F910F91FF90EF90DF90CF90CE
:10370000BF90AF909F908F907F906F905F904F9001
:1037100008950E940C0F082F682F89819A810E94BA
:10372000B807E12FF0E026E0D29EE00DF11D112454
:1037300034E5039FE00DF11D1124EE0FFF1FE4554A
:10374000FE4F0591149180911E06882321F08091EF
:103750001F068111BAC6F70182810932FDE51F07F4
:10376000C9F10A322DE5120709F4CEC0023C3CE54E
:10377000130709F0EFC08823E9F090911A018091B6
:10378000D9059F3F09F0DFC010921A018F7E809308
:10379000D90540E060E080E00E949C084091D90596
:1037A0005091DA056091DB057091DC058FE090E0C7
:1037B0000E94D72F8091C505877009F494CFF70137
:1037C0008281882309F48FCF82E00E94E9158BCF94
:1037D00081E181C68823C9F18091D90591E0980FD4
:1037E0009770887F953008F4892B8093D905809154
:1037F000D9058770EFEF8E9FC001112495958795AD
:103800009595879599279093890080938800909348
:103810008B0080938A0090938D0080938C00409160
:10382000D9055091DA056091DB057091DC058FE0D8
:1038300090E00E94D72F60911A0670911B0680912C
:103840001C0690911D060E94910FF701828188232A
:1038500009F4BDC09801215E3C452530310508F0D2
:10386000B6C06FE1600F6093D5058CE090E00E94D8
:10387000C52FF7019281992309F44CC61092510586
:103880000230FCE51F0708F453C606312CE5120789
:1038900038F098012A5F3C452730310508F048C6CA
:1038A0000E94E10F9093EC058093EB050F303CE50F
:1038B000130709F406C208F080C108309CE5190717
:1038C00009F4E9C108F055C10430FCE51F0709F40B
:1038D000D6C108F03BC102303CE5130709F4C7C16B
:1038E00003301C4509F4C7C16091EB051091EC054C
:1038F00084E090E00E94C52F612F81E290E00E9459
:10390000C52F0E942C1656CF882309F49ECF909184
:10391000D905892F877F93FF88608093D90583FF1E
:1039200005C040E060E080E00E949C084091D9051D
:103930005091DA056091DB057091DC058FE090E035
:103940000E94D72F82CF9FEF90931A0180618093BE
:10395000D90524CF0C32FDE51F0709F160F40B32C5
:103960003DE5130709F071CF882309F423CF81E0E7
:103970000E94D2131FCF0D329DE51907E9F00E32D8
:10398000EDE51E0709F061CF882309F413CF81E02C
:103990000E94D2134FEF6FEF8BE190E00AC08823B3
:1039A00009F408CF81E00E94D2134FEF6FEF8CEA49
:1039B00090E00E945A13FECE882309F4FBCE81E0EA
:1039C0000E94D21340E86FEF86E590E0F2CF17FF38
:1039D00074C0882309F44DCF8091C80580935005A9
:1039E0001092C8058091D505813009F441C0882323
:1039F000D9F1823009F449C0843009F44DC08FE315
:103A00009CE90197F1F700C000005801E894B7F86D
:103A1000ECE0CE2ED12C95010C2C02C036952795CA
:103A20000A94E2F72F7087E290E029F0822F90E06D
:103A30002A30B8F54D960E94DB1A94E0C91AD108D5
:103A4000ECEFCE16EFEFDE0631F78091D505813031
:103A500071F1882341F1823031F1843061F180913C
:103A600050058093C80505CF82EE0E94661AC7CF25
:103A700083E00E94FB0788E10E94661A88E10E94A9
:103A80002D1A83E00E94F007BACF82EE0E94661AD8
:103A900087E50E94DB1AB3CF86EE0E94DB1A88E12D
:103AA000F8CF0697C8CF82EE0E942D1AD8CF8CE2AD
:103AB0000E94DB1AD4CF88E2FBCF033FFCE51F074F
:103AC00069F1B0F4083D3CE5130711F1093D8CE5BF
:103AD0001807B1F1073D9CE5190709F0CACE06E2C7
:103AE00021EE41EE67ED7CE5C7010E94EE1A62CE41
:103AF000053FECE51E07F1F0B8F0063F2CE5120794
:103B000009F0B7CE07E225EE46EE66EF7CE5ECCF96
:103B100007E225EE45EE68ED7CE5E6CF06E221EE14
:103B200040EE63EF7CE5E0CF07E225EE44EE64EF84
:103B30007CE5DACF06E221EE42EE65EF7CE5D4CFFC
:103B400008E221E045EE69ED7CE5CECF8091EB0502
:103B5000806106309CE5190709F447C08091EB05A8
:103B6000886007301C4508F440C08091EB058062F6
:103B70003CC00B30FCE51F0709F49BC068F409301A
:103B80003CE5130709F48BC00A301C4509F0ACCEA4
:103B90008091EB058C6029C08091EB058B7F0D3007
:103BA0009CE5190711F18091EB058D7F0E301C45C6
:103BB000E0F08091EB05877F18C00A3FFCE51F0706
:103BC00009F461C060F502313CE5130709F481C0D6
:103BD00078F400319CE5190709F477C08091EB0572
:103BE0008F7B01311C4509F07FCE8093EB057CCEA5
:103BF0000431FCE51F0709F47AC008F470C00531F0
:103C00001C4509F071CE8091EB0582FB992790F954
:103C100021E0922790FB82F990FB83F9E6CF0D3FDC
:103C20008CE5180709F449C070F40B3FECE51E075A
:103C300071F18091EC058E7F0C3F1C4509F054CE4C
:103C40008093EC0551CE0F3F2CE5120709F44BC0D1
:103C500060F101151D4509F047CE8091EC05982FC4
:103C6000909591708E7F892B90FB81F9E9CF80919F
:103C7000EB058160BACF8091EB058260B6CF809171
:103C8000EB058460B2CF8091EC058160D9CF809143
:103C9000EC058260D5CF8091EB058064A6CF0E94B1
:103CA0002C168091EB058068A0CF8091EC05836095
:103CB000C7CF8091EB058E7F98CF8091EC058D7FEB
:103CC000BFCF8091EB058F7E90CF8091EB058F7DEC
:103CD0008CCF0E942C168091EB058F7786CF809138
:103CE000EB05837F82CF8091EC058C7FA9CF0E946A
:103CF0002C169091EB05892F97FB87F9805875CF8B
:103D0000992309F4A8C08091C8058272F801E25C89
:103D1000FC45E431F10508F049C0E359FF4C0C942F
:103D2000042E8091550691E08927809355061092C4
:103D30001C010E9452133ECD4FEB53E168EC73E13E
:103D40000E94520837CD48EC53E16FEB73E1F8CF96
:103D500047E953E160EA73E1F3CF40EA53E167E9F1
:103D600073E1EECF4FE753E16BE873E1E9CF4BE846
:103D700053E16FE773E1E4CF47E653E163E773E1B3
:103D8000DFCF43E753E167E673E1DACF4EED53E16E
:103D900064ED73E1D5CF44ED53E16EED73E1D0CF27
:103DA00085E0E6CD8DE0E4CD82E1E2CD0E3DECE5AF
:103DB0001E0709F446C00830FDE51F0709F444C09A
:103DC00001151C4509F047C00E942C163FEF84E303
:103DD0009CE0315080409040E1F700C00000F89432
:103DE00081E08093E00080E28093D8001092C900C7
:103DF000EFE1FEE43197F1F700C000001DBA109228
:103E000068001CBC10BE1FBA10927A0010926E009F
:103E100010926F0010927100109272001092C900FF
:103E20001092BC0014B817B81AB81DB810BA109286
:103E3000BC0015B818B81BB81EB811BA0C94003FD6
:103E4000B9CC0E940511B6CC8091200691E089275B
:103E500080932006AFCCF70100811181992309F4EA
:103E600044C0C8010E940C0FD82E682FC8010E94C0
:103E7000B807B8018D2D0E94690D082FD92EB82ED4
:103E8000F701C580C2947FE0C72212811111109200
:103E9000C7058091C5058770C1F01123B1F08D2D44
:103EA000807F803449F090E2900F983070F0803637
:103EB00019F4F6EFBF1649F082E00E94E9158091EF
:103EC000C5058770AA24A3948111A12C9D2C9294DE
:103ED0005FE095226BE0462E491408F441C0E92DBD
:103EE000F0E0EF57FF4C0C94042EC8010E948F079E
:103EF000D82EBFCF2D2D2F70C22E8D2D807F19F083
:103F0000C29440EFC4221123C9F0CC2069F080E2B2
:103F1000800F883010F0B1100BC08091C805C82AFE
:103F2000C092C8050E944A07802F0E94661A18C0D6
:103F30008091C705C82AC092C705F4CF802F0E9480
:103F40002D1ACC2069F0C094005E083010F0B1103A
:103F500057C08091C805C822C092C8050E944A0770
:103F6000292D2850330B2430310510F40E944608C7
:103F7000112379F08D2D807F803619F436EFB3163A
:103F800041F080915305823009F097C283E080931D
:103F90005305AA20A9F08091C50580FD11C0F70145
:103FA00012828595859585950E940116C7010E940C
:103FB000511B8091C5058595859585950E94C615EF
:103FC00085E0F701DE01119601900D928A95E1F7E7
:103FD00089819A810E948F079A81E981F0E026E029
:103FE000929FE00DF11D112434E5839FE00DF11D3A
:103FF0001124EE0FFF1FE455FE4F8591949173CB72
:104000008091C705C822C092C705A8CF3D2D3F703B
:10401000832E8D2D807F803219F0829430EF8322A1
:10402000BB2041F081E0B81631F1112381F1CC20A1
:1040300049F17ACF112391F09091C905892F8829F0
:10404000C11003C00E9410088BCFE1E0CE12FACF5E
:10405000981709F485CF8093C90582CFC11006C097
:104060000E944407882D0E9405087ACFF1E0CF1600
:1040700009F476CFF5CF112339F0442443944C143E
:1040800008F46ECF882DDECFC1106ACFEBCFCC20E5
:1040900049F329E3522EB51009C02FEF37EE83E024
:1040A000215030408040E1F700C00000802F0E9486
:1040B0002D1A56CF8D2D86958695837069F08130A7
:1040C00009F04ECF802F9D2D9370111102C090E00A
:1040D00080E00E941A0844CF802F9D2D937011110B
:1040E00002C090E080E00E9430083ACF802F112378
:1040F00029F00E9421060E94471532CF0E945A05DE
:10410000FACF8D2D837009F067C0111129CF202FB0
:10411000229526952770220F220F402F4F7050E0D6
:1041200070E060E0022E04C0440F551F661F771F29
:104130000A94D2F780E090E0DC0104FF0FC08FE02A
:1041400090E0A0E0B0E004C0880F991FAA1FBB1F39
:104150002A95D2F780959095A095B0952D2D26950E
:1041600026952370223029F1D8F44090CA0550904A
:10417000CB056090CC057090CD05213069F0842B83
:10418000952BA62BB72BBC01CD016421752186216F
:1041900097210E942216E4CE4429552966297729C1
:1041A0002A013B01482A592A6A2A7B2AC301B20103
:1041B000F0CF842B952BA62BB72B4090CA0550909F
:1041C000CB056090CC057090CD05BC01CD01642578
:1041D000752586259725DDCF8695112311F08D2D28
:1041E0008170882309F4BCCE202F22952695277054
:1041F000220F220F402F4F7050E070E060E0022E3F
:1042000004C0440F551F661F771F0A94D2F780E041
:1042100090E0DC0104FF0FC08FE090E0A0E0B0E090
:1042200004C0880F991FAA1FBB1F2A95D2F780953B
:104230009095A095B0952D2D26952695237022302A
:1042400029F1D8F440901A0650901B0660901C0685
:1042500070901D06213069F0842B952BA62BB72B6F
:10426000BC01CD0164217521862197210E948B1507
:1042700077CE44295529662977292A013B01482A06
:10428000592A6A2A7B2AC301B201F0CF842B952BCD
:10429000A62BB72B40901A0650901B0660901C0668
:1042A00070901D06BC01CD016425752586259725D6
:1042B000DDCF2D2D2F70C22E112329F0822F0E94C9
:1042C0000116802FBFCE802F0E9405088C2D0E94E2
:1042D000C61546CE802F32EFB31609F452C03B15F7
:1042E00078F090EFB91629F1E1EFBE1609F441C05C
:1042F000112309F46AC0C11017CE8D2D8F713EC0F5
:10430000F3EFBF1609F442C094EF492EB410F0CF7A
:10431000112309F44FC00D2D0F71802F0E9401163B
:1043200028E0029FC001112483608093C505802F7F
:1043300025C01123C1F0C11013CE2D2D2F7161E0C6
:1043400070E080E090E004C0660F771F881F991F1F
:104350002A95D2F740901A0650901B0660901C06D2
:1043600070901D06A1CF552453945C1408F4F8CD29
:10437000E4CF8D2D8F71112309F4A9CF0E9401166E
:10438000EFCD8D2D8F711123C9F3A1CF60E070E0C7
:10439000CB01112309F46ACF2D2D2F7161E070E05C
:1043A00080E090E004C0660F771F881F991F2A9550
:1043B000D2F75CCF81E00E94E91531E03C1508F0AE
:1043C000CFCD82E00E94E915CBCDCC2059F08933C6
:1043D00009F06CCE8FEF97EEE3E081509040E04023
:1043E000E1F762CE8D2D8F7172CFE0E1E00FE73003
:1043F00008F03EC0F0E0E357FF4C0C94042E11236C
:1044000009F4AECD8091550591E08927809355053B
:10441000A7CD10935505A4CD81E08127F7CF1111C9
:104420009FCD81E0F3CF11119BCD1092550598CD12
:10443000112321F082E080935305F3CF809153053F
:10444000823021F481E0809353058ACD833009F0D6
:1044500087CD10925305E9CF112339F0809154058F
:10446000882381F2109254057BCDCC2059F278CD6F
:1044700080915405CC20A9F0882341F08091550506
:1044800091E089278093550510925405802F1111D2
:104490004CCD0E942D1A86E0F70111928A95E9F71A
:1044A0005FCD882309F45CCD11115ACD809155055B
:1044B00091E0892780935505D5CF813009F069CDEA
:1044C000109253051092550564CDF701828119822F
:1044D00081117EC982E18A83F70180818B8381818A
:1044E0008C838EEF8D8365E0CE0101960E9442059C
:1044F00032C985E0DE01119601900D928A95E1F7AF
:10450000F701228189819A81211103C90E948F07B5
:10451000082F07C906311C4509F09DCC8091520532
:1045200069E2811165E382EB93E00E94980614C072
:1045300006312CE5120709F0E3CB8091C8058A7A91
:1045400091E009F490E09093520569E2811165E3EE
:1045500082EB93E00E94C2060E944A072BC91F9378
:10456000CF93DF9380915B05807FA9F480915805FC
:10457000882389F080918D05D0915C056091560566
:1045800070915705A0915905B0915A05C62FC723C0
:1045900016E0D81304C0DF91CF911F91089590E0E9
:1045A000109711F0CF3F19F401968770F2CF189F42
:1045B0009001199F300D1124F901E35AFA4F4181FE
:1045C0004713F2CF40814613EFCF42814111ECCF28
:1045D000438154814A1B5B0B483C510528F780916D
:1045E0005B058F70806180935B05F901EE59FA4F8E
:1045F00080818F708061808386E595E00E94511BE9
:10460000DF91CF911F910C94E607AF92BF92CF92AA
:10461000DF92EF92FF920F931F93CF93DF93CDB76B
:10462000DEB761970FB6F894DEBF0FBECDBF8C0129
:1046300085E0F801DE011D9601900D928A95E1F763
:10464000F80180819181E28026E5A22E25E0B22E3C
:104650006091590570915A056115710509F43EC1C3
:104660003091560540915705232F24232F3F09F4FD
:1046700035C1C380D480F0905805F601E61BF70BD6
:10468000FF2009F4FBC020915B05522F507FE83CCE
:10469000F10508F0BBC0511178C0FE2C491321C0B0
:1046A00038131FC0E1101DC02F70206120935B05DF
:1046B000C5010E94511B80915B05F80185838F2DF8
:1046C00061960FB6F894DEBF0FBECDBFDF91CF91DC
:1046D0001F910F91FF90EF90DF90CF90BF90AF9020
:1046E0000895CD2829F0282F29232F3F09F022C132
:1046F00020E0F22FF170DF2E20FF3DC020918D05CC
:1047000040915C0556E0241315C08D879E878D85EA
:104710009E850E944E0F292F22952F702230F8F08F
:10472000243020F59F70F9F0F8019581907FD9F43D
:10473000D12C1FC030E0529FF001539FF00D112487
:10474000E35AFA4F6181961306C06081861303C055
:104750006281E61210C02F5F3F4F2770D4CF9F7049
:1047600011F0882329F3805E883010F3C8010E947D
:10477000511BFD2CA4CFEE2009F4A1CF80915B0545
:10478000816080935B05F12C9ACF491312C03813D6
:1047900010C0E1100EC0F8012583C8010E94511B12
:1047A00086E0F801A6E5B5E001900D928A95E1F763
:1047B00086CF8D879E878D859E850E94580F882382
:1047C00009F1EE20F9F080915B05803270F02091C4
:1047D00056053091570538872F831986DB86CA86A0
:1047E0008C87CE0107960E94511B86E0F801A6E552
:1047F000B5E001900D928A95E1F70E94AF22FF2467
:10480000F3945DCFC8010E94511BF9CF51110AC02A
:1048100086E595E00E94511B86E0F50111928A958C
:10482000E9F7B1CF49130FC038130DC0E1100BC029
:10483000F8012583C8010E94511B86E0F501119201
:104840008A95E9F73CCF8D879E878D859E850E944E
:10485000580F8823B9F2EE20A9F280915B058032CF
:1048600020F220915605309157053A8329831B8207
:10487000DD82CC828E83CE010196B5CFE83CF10576
:10488000E0F6FE2CEE2009F4BDCF491316C0381314
:1048900014C080915B0580FD83CF982F907F09F431
:1048A0007FCFF8018583903F09F477CF982F907FD1
:1048B000905F8F70892B858370CF8D879E878D85C4
:1048C0009E850E94580F811190CF80915B05816079
:1048D00080935B05C8010E94511BF1CEEE2009F4C4
:1048E00091CF8D879E878D859E850E94580FF82ECB
:1048F000882309F487CF86E0F801A6E5B5E00190AA
:104900000D928A95E1F780915605909157050E9486
:104910004E0F92959F70963051F4863F41F08091F2
:10492000550591E0892780935505909354050E9481
:10493000AF22C5CE21E02E25DCCE1F93CF93DF938F
:10494000CDB7DEB767970FB6F894DEBF0FBECDBF09
:104950006D8B7E8B8F8B8E899F89892BE1F0852FC4
:1049600084238F3F09F098C05FEF4FEF14C0309160
:104970005505332309F44EC0E42FF0E036E0539F91
:10498000E00DF11D1124EE0FFF1FEC50FE4F408192
:104990005181822B8C931A8A198A4B8B5C8B85E010
:1049A000FE017396DE011D9601900D928A95E1F746
:1049B00086E0FE013D96DE01179601900D928A95E4
:1049C000E1F7CE0107960E940523811112C086E00F
:1049D000FE013796DE01119601900D928A95E1F75E
:1049E0008A859B85892B29F08F81988589238F3F24
:1049F000C9F516E080918D0590915C05891320C062
:104A000067960FB6F894DEBF0FBECDBFDF91CF9192
:104A10001F91089580958223BDCF96E0929FD0018B
:104A2000939FB00D1124A35ABA4FFE013196019005
:104A30000D929A95E1F780935C050E94E607D9CF25
:104A4000819FC0011124835A9A4F0E940523882315
:104A5000B9F280918D0590E0019687709927809337
:104A60008D05C8CF20915C0530E0C90101968770A3
:104A7000992740918D054817190679F60E942C1642
:104A800010925C0510928D0586E0E6E5F5E0DF0109
:104A90001D928A95E9F7ADCF81E090E0042E01C028
:104AA000880F0A94EAF7A52FB0E0AE5BBA4F2C91BD
:104AB0003D8931115CCF322F38235BCF8F929F928B
:104AC000AF92BF92CF92DF92EF92FF920F931F931C
:104AD000CF93DF9380910C0190910D01892BA1F070
:104AE0008091D3038F5F8093D30381110DC00E9407
:104AF000151490E090930D0180930C01892B21F403
:104B00000E948B100E94F913EDED8E2EE5E09E2E93
:104B1000740100E010E077E0C72EC10E812F0E94E3
:104B20008C148C2D0E948C14812F0E94E014E701BC
:104B300099917E01D12C891729F0FE01319780834C
:104B4000DD24D3948C2D0E94E014F70196818917FF
:104B500009F47CC0868381E08D29082B0E94C50F53
:104B60001F5F1730C1F60E943B156091D50370910D
:104B7000D6039093D6038093D5032091D40330E0DD
:104B8000261B370B820F931F6BEF70E00E94DC2D0A
:104B9000E82E392F182F8093D403F090D803FF20EC
:104BA00009F41AC31092D803E091D305F091D4050B
:104BB000AF01425F5F4F20E06BEFB62E6BEF70E00E
:104BC000A191AB3FA1F0CA2ED12C8E2D932F1A1795
:104BD00008F43EC08C199D09092E000CAA0BBB0BD2
:104BE0004E97A105B105D0F1DF011197BC92E417F2
:104BF000F50731F72093D803011102C02111EEC24D
:104C00001092D703A091D305B091D4059091D80309
:104C1000E0EFF5E04EEF55E080E03191E4012991BD
:104C20004E01321751F03C913B3FD1F41C93BF0130
:104C300061507109EB01288391E011964E175F07CF
:104C400061F79093D8038093D703CCC280E084CFE0
:104C5000DB01AC19BD098A0F9B1FBECF2F2DC7CF1B
:104C600081E0EBCF10921901409351065093520608
:104C7000609353067093540681E080931C01E0C258
:104C800080910B01C1E018130BC0209155062370D1
:104C900080910A0190E0C1E02817190609F4C0E0EC
:104CA000C170C0931B01193140F4E12FF0E0EC56C4
:104CB000FF4C0C94042EC11102C0C0E027C040E09C
:104CC00060E080E00E949C08F8CF80911901C82F15
:104CD000CC0FCC0FC80F45E0F42EFC0EEF2CD0E328
:104CE000DF1510F430E3E32E6091560670915706FD
:104CF000809158060E940D0BD62EC72EB82ED0E0FC
:104D0000CE15B0F0C1E0FFE2FF15B8F280911901B5
:104D10008F5F80931901C11193C282E080931C01BF
:104D200080911B0181118CC211118AC283E0A5CF31
:104D3000FE01EF57FC4F808190911A01892331F0D9
:104D40002B2D4D2D6C2DCE010E949E082196D8CF83
:104D500080911901C82FCC0FCC0FC80F25E0F22E7F
:104D6000FC0EEF2C20E32F1510F490E3E92EC090F9
:104D70005706D0905806D09156066D2F7C2D8D2D5C
:104D80000E940D0BB62EA72E982E609159066D0F1E
:104D90007C2D8D2D0E940D0BD62EC72E882ED0E097
:104DA000CE1530F0C1E08FE28F1508F0AFCF85CF80
:104DB000FE01EF57FC4F908180911A01892359F031
:104DC000282D4D2D6C2D90FD03C0292D4B2D6A2DC6
:104DD000CE010E949E082196E3CF80911901C82F31
:104DE000CC0FCC0FC80F85E0F82EFC0EDF2C90E323
:104DF0009F1510F4D0E3DD2EC0905706B0905806F2
:104E000020915906B0E4EB2E3E2D329F312D112416
:104E1000E32ED0E0CD1530F0C1E09FE29F1508F001
:104E200075CF4BCFFE01EF57FC4F808190911A0157
:104E30008923B9F0FE01EE0FFF1FEE5DFC4F80816C
:104E400082958F70609156068E9D600D11247C2D89
:104E50008B2D0E940D0B462F282F672FCE010E940D
:104E60009E082196D7CF80911901C82FCC0FCC0F67
:104E7000C80FE5E0FE2EFC0EDF2CD0E3DF1510F4AA
:104E800070E3D72EC0905706B0905806209159066F
:104E900060E4E62E3E2D329F312D1124E32ED0E02A
:104EA000CD1508F0B9CFFE01EF57FC4F80819091EE
:104EB0001A018923D9F0FE01EE0FFF1FEF5DFC4FB1
:104EC0006081E69EB001112455E0759567955A956D
:104ED000E1F780915606680F7C2D8B2D0E940D0BFB
:104EE000462F282F672FCE010E949E082196D8CFEB
:104EF00080911901C82FCC0FCC0FC80F35E0F32ECD
:104F0000FC0EEF2CD0E3DF1510F420E3E22ED0905E
:104F10005606D0915706C09058066091590666957E
:104F20006695669580915106909152060E94030BFA
:104F30000E948C0A805887FD8195880F282F3C2D70
:104F4000239F212D1124822F6D2D7D2F0E940D0B6B
:104F5000D62EC72EB82ED0E0CE1508F05DCFFE01BC
:104F6000EF57FC4F808190911A01892331F02B2D4E
:104F70004D2D6C2DCE010E949E082196EDCF87E924
:104F800099E00E94DC0CC82FC1CE8DE699E0F9CFE4
:104F90008EE69AE00E94800CF6CF8FE49AE0FACF7A
:104FA00084E39AE00E94030CEECF88E19AE0FACF06
:104FB0008BE699E0E6CF82E699E0E3CF89E599E0D8
:104FC000E0CF80E499E0DDCF82E399E0EBCF8BED99
:104FD0009AE0E0CF87E09AE0DDCF83EF99E0E2CF7F
:104FE00085E099E00E94A10BCECF87ED98E0FACF43
:104FF00080EA98E0F7CFC1111EC06091590620E108
:10500000620F08F46FEF80915106909152060E9452
:10501000030B6AE070E00E94DC2D892B09F04DCE75
:105020000E94562E60E370E00E94F02D60911A01FC
:105030000E940C136BCE80911901C82FCC0FCC0F9E
:10504000C80F95E0D92EDC0E8D2DD0E3DD1508F4C8
:1050500080E3D0E0E82EF12CCE15DF0534F0C1E07E
:10506000EFE2ED1508F052CE28CE60911A01CE0184
:105070000E940C132196F0CFC1111EC060915906F9
:1050800020E1620F08F46FEF809151069091520673
:105090000E94030B65E070E00E94DC2D892B09F073
:1050A0000CCE0E94562E60E370E00E94F02D6091BD
:1050B0001A010E94EA122ACE80911901C82FCC0F42
:1050C000CC0FC80F85E0D82EDC0E8D2DF0E3FD153A
:1050D00008F480E3D0E0E82EF12CCE15DF0534F0A3
:1050E000C1E02FE22D1508F011CEE7CD60911A0135
:1050F000CE010E94EA122196F0CF10930B0180910D
:105100005506837080930A010E949E110FCE409134
:1051100051065091520660915306709154062FB774
:10512000F8948091CE059091CF05A091D005B091D3
:10513000D1052FBF841B950BA60BB70B4A97A10572
:10514000B10508F47DC010921C017AC09170892BC2
:1051500009F488C08091DE039091DF038130984785
:1051600080F01092200660911A0670911B068091C3
:105170001C0690911D060E94910F1092DF03109261
:10518000DE038091DE039091DF0301969093DF03AD
:105190008093DE03802FDF91CF911F910F91FF90BD
:1051A000EF90DF90CF90BF90AF909F908F90089539
:1051B0000E948B0F5EC0892B69F31092DF0310925F
:1051C000DE0360911A0670911B0680911C06909177
:1051D0001D060E94910FDECF011112CD8091D703E1
:1051E00081110ECD8FB7F8944091CE055091CF0527
:1051F0006091D0057091D1058FBF4093D903509332
:10520000DA036093DB037093DC038091220610E0E5
:10521000811108C080915506182F137019F0182FAE
:105220001695169580911C01813009F429CD8823AB
:1052300009F418CD823009F460CF833009F467CFC8
:105240008091DE039091DF0320912006222309F450
:10525000B2CF009709F07ACF0E94820F0E947F0F91
:105260000E947C0FC091DD03CC2309F4A1CF0E94E2
:105270007F0F81E0C827C093DD036CCFCDB7DEB7C9
:10528000C955D1090FB6F894DEBF0FBECDBF84B7A4
:10529000877F84BF0FB6F894A895809160008861DD
:1052A00080936000109260000FBE80E890E00FB61F
:1052B000F89480936100909361000FBE85B7806879
:1052C00085BF85B7806885BF0E9454030E94210472
:1052D0008091E20084608093E20078948091470698
:1052E0008823A1F01091E9001F709091EC00892FA4
:1052F000817090FD80E8182B1092E9008091E80001
:1053000083FD0E9441161F701093E90082E084BD66
:1053100093E095BD9AEF97BD80936E000E9415149F
:1053200090E090930D0180930C010E94C50F0E94A4
:10533000D40FEDEDF5E08BEE95E0A0EFB5E0119226
:105340001D928E179F07D9F78EE090E00E94662E7F
:105350008093D3059093D405FC010E962BEF2193F7
:105360008E179F07E1F790E080E00E94AF2F8F3EFD
:105370009E4F11F00E9405110E94F9138CE090E0FD
:105380000E94A12F90E0B0E0A0E08093D50590931B
:10539000D605A093D705B093D80589EA80938000FD
:1053A00089E08093810024982C983F988AB18F7C63
:1053B0008AB96E98479A8BB180638BB9769A8FE0E1
:1053C00090E00E94A92F6093D9057093DA0580932D
:1053D000DB059093DC0567708FEF869FB001112489
:1053E0007595679575956795772770938900609394
:1053F000880070938B0060938A0070938D00609397
:105400008C009091D90594FFA7C180931A010E9446
:105410008B1090E080E00E94AF2F8F3E9E4F11F0E6
:105420000E94051182E090E00E94A12F80930B065C
:105430000E94E10F9093EC058093EB0583E090E0F0
:105440000E94A12F682F70E090E080E00E94221659
:1054500060911A0670911B0680911C0690911D06A2
:105460000E94910F80915506837011F410921C01D7
:10547000809155068C7F8160809355068EE091E087
:105480009093EE058093ED05EE24EA949EEFF92EBD
:1054900023E0422E31E4A32EB12CAC0EBD1E82E0DF
:1054A000A80EB11C4EEFC42E45E0D42E50E1552E6F
:1054B00068E1862E912C80914706853009F44FC112
:1054C0000E945E25ECE0F6E0A0EFB5E010E000E021
:1054D000302F8D912191281709F49CC190E07724F9
:1054E00073942827422F472109F48FC161969FAFFB
:1054F000619762963FAF6297872191E009F490E04F
:1055000063969FAF63970E943B158160782F6596E5
:105510009FAF8EAF659761964FAD619762965FAD15
:10552000629763966FAD639765968FAD65970E949E
:105530009D24F801E45FF94F80817826708286E02F
:10554000E4E0F6E0DE01119601900D928A95E1F714
:1055500070900606609007061091080600910906F3
:10556000109206061092070610920806109209067D
:10557000872D862909F448C0809102069091030680
:105580000E9489069C0190910106992309F409C2A1
:1055900025313105C8F19F3F19F09F5F90930106B7
:1055A000772059F00E94FD059FEF17140CF491E04D
:1055B000899F802D112480930606662059F00E9451
:1055C000FD059FEF16140CF491E0899F802D1124A6
:1055D00080930706309106063323B1F02091070629
:1055E000222391F045EB3403C0011124992309F4DF
:1055F00037C19093060645EB240390011124332311
:1056000009F432C130930706812F802B09F448C07A
:105610008091FF05909100060E9489069C0190915F
:10562000FE05992309F4B9C125313105C8F19F3F21
:1056300019F09F5F9093FE05112359F00E94DD053C
:105640009FEF11160CF491E0899F802D1124809317
:105650000806002359F00E94DD059FEF10160CF498
:1056600091E0899F802D11248093090630910806CE
:105670003323B1F020910906222391F045EB340346
:10568000C0011124992309F4F3C09093080645EB57
:10569000240390011124332309F4EEC0309309064A
:1056A0008091060690910706892B90910806892B18
:1056B00090910906892B11F00E94471586E0FE01A2
:1056C0003196A4E0B6E001900D928A95E1F70E9430
:1056D000460890910A06891721F00E944608809397
:1056E0000A0680914706843009F0E5CE8093E900F0
:1056F0008091E80082FFDFCE8091E80090E085FF96
:1057000006C00E947303882309F4BAC091E0809117
:10571000E8008B778093E800992309F4CCCE1981B7
:105720001111CCC080912006882309F4E1C01092A9
:10573000200681E080931F0622961FAE22972396B3
:105740001FAE23972496FFAE249763E0CE018F5BB4
:105750009F4F0E944205AFCE10921A0158CE40E0F2
:1057600060E080E00E949C0811E010932206809186
:105770004706843049F11092EF0580E40FB6F894A3
:10578000A895809260000FBE8093600040E060E0CA
:1057900080E00E949C081093220683B7817F84607A
:1057A00083BF83B7816083BF7894889583B78E7FEA
:1057B00083BF0FB6F894A8958091600088618093AC
:1057C0006000109260000FBE80914606882309F4A5
:1057D00072CE0E94151490E090930D0180930C01FD
:1057E0000E94C50F0E94D40FE0EFF5E01192CE1693
:1057F000DF06E1F70E945E25E0EFF5E0819181117F
:10580000B7C0CE16DF06D1F756CE9F5F770C963025
:1058100009F068CE0F5F1F4F0E30110509F058CE0A
:105820006696EFAE66976796EFAE679768961FAE7F
:1058300068970E943B158160782F6A969FAF8EAF64
:105840006A9766964FAD669767965FAD679768965D
:105850006FAD68976A968FAD6A970E949D246FCE50
:1058600081E080930606C7CE81E080930706CCCE08
:1058700081E0809308060BCF81E08093090610CF6A
:1058800080E4682E712C8E010F5F1F4F8091E8001D
:1058900085FD0AC08091E8008B778093E8000E9424
:1058A0007303882399F332CF8091F100F80181933B
:1058B0008F01F1E06F1A710849F728CF1130C1F458
:1058C00022961FAE229723961FAF23978CE0E0E22B
:1058D000F1E0D50101900D928A95E1F76096FFAE57
:1058E00060976FE0CE018F5B9F4F0E944205E3CD32
:1058F00080911F068823C1F1123041F01330F1F07E
:1059000081E022968FAF229761E020CF60911A0646
:1059100070911B0680911C0690911D060E94F7064F
:1059200022961FAE229723961FAF239724968FAF00
:1059300024972596FFAE259764E008CF8A818130B1
:1059400041F0882341F08230D9F681E080931E0631
:1059500002C010921E0622961FAE229723964FAECB
:10596000239780911E06E2CF2296EFAE2297CCCFEE
:1059700059BC82E189BD09B400FEFDCF8091D800F9
:105980008F7D8093D8008091E00082608093E0005A
:105990008091E00081FDFCCF8ECD232B09F049CE14
:1059A0007FCE232B09F0F9CD2FCE1F921FB61F9269
:1059B00011248F939F93AF93BF938091EF05811133
:1059C00013C08091CE059091CF05A091D005B091E4
:1059D000D1054196A11DB11D8093CE059093CF05B1
:1059E000A093D005B093D105BF91AF919F918F91B6
:1059F0001F901FBE1F9018951092B9008CE08093E5
:105A0000B8000895EF92FF920F931F93CF93DF9307
:105A1000182FEB011092BC0084EA8093BC000E9416
:105A20003B157C018091BC0087FF27C08091B900A5
:105A3000887F883029F08091B900887F8031D9F53E
:105A40001093BB0084E88093BC000E943B158C013E
:105A50008091BC0087FF24C02091B900287F90E08E
:105A600080E02831B1F081E090E0203411F490E042
:105A700080E09195819591090CC0CF3FDC0791F2B0
:105A80000E943B158E199F098C179D0758F28EEFC7
:105A90009FEFDF91CF911F910F91FF90EF900895AD
:105AA000CF3FDC07A9F20E943B15801B910B8C179E
:105AB0009D0770F2ECCF8FEF9FEFEBCF0F931F930B
:105AC000CF93DF93EB018093BB0084E88093BC000D
:105AD0000E943B158C018091BC0087FF11C0209172
