:100000000C94C3030C94E0030C94E0030C94E00301
:100010000C94E0030C94E0030C94E0030C94E003D4
:100020000C94E0030C94E0030C94E4180C942B174C
:100030000C9495290C94E0030C94E0030C94E003D9
:100040000C94E0030C94E0030C94E0030C94E003A4
:100050000C94E0030C9436130C94E0030C94E0032E
:100060000C94E0030C94E0030C94E0030C94E00384
:100070000C94E0030C94E0030C94E0030C94E00374
:100080000C94E0030C94E0030C94E0030C94E00364
:100090000C94E0030C94E0030C94E0030C94E00354
:1000A0000C94E0030C94E0030C94E00300010101C4
:1000B0000101010101010202020202020202020325
:1000C00003030303030303040404040404040505F5
:1000D00005050506060606060707070707080808B8
:1000E00008090909090A0A0A0B0B0B0C0C0C0D0D67
:1000F0000D0E0E0E0F0F0F101011111112121313FF
:100100001414151516161717181819191A1A1B1B77
:100110001C1D1D1E1E1F20202122222324242526D3
:1001200026272829292A2B2C2D2D2E2F303132320B
:10013000333435363738393A3B3C3D3E3F40414217
:10014000434445464748494A4C4D4E4F50515354FD
:10015000555658595A5B5D5E5F61626465666869B1
:100160006B6C6D6F7072737577787A7B7D7E808231
:10017000838587888A8C8E8F91939596989A9C9E7A
:10018000A0A2A3A5A7A9ABADAFB1B3B5B7BABCBE8A
:10019000C0C2C4C6C9CBCDCFD1D4D6D8DBDDDFE257
:1001A000E4E7E9EBEEF0F3F5F8FAFDFFFFAA7F557F
:1001B000402223252628292A2C2D2F30323335366C
:1001C000383A3B3D3E4042434547494A4C4E5051E8
:1001D000535557595A5C5E6062646668696B6D6F0F
:1001E00071737577797B7D7F81838587898A8C8E12
:1001F00090929496989A9C9E9FA1A3A5A7A8AAAC1A
:10020000AEAFB1B3B4B6B8B9BBBCBEBFC1C2C3C553
:10021000C6C7C9CACBCCCDCED0D1D2D2D3D4D5D6F5
:10022000D7D7D8D9D9DADADBDBDBDCDCDCDCDCDD28
:10023000DDDDDDDCDCDCDCDCDBDBDBDADAD9D9D80C
:10024000D7D7D6D5D4D3D2D2D1D0CECDCCCBCAC9A4
:10025000C7C6C5C3C2C1BFBEBCBBB9B8B6B4B3B1D3
:10026000AFAEACAAA8A7A5A3A19F9E9C9A9896946E
:1002700092908E8C8A89878583817F7D7B79777543
:1002800073716F6D6B6968666462605E5C5A595722
:10029000555351504E4C4A4947454342403E3D3BE1
:1002A0003A3836353332302F2D2C2A29282625236B
:1002B000222E004C003900E100354100001E0014E0
:1002C0000004001D00085D4D001F001A0016001BF1
:1002D00000E1042A00200008000700060050002C5E
:1002E0000021001500090019004F004A00220017E4
:1002F000000A00050000006564290046040000C5EE
:100300005C0000E3003C004600000001530000E2F6
:100310000023001C000B00110000002961240018BC
:10032000000D00100052004B0025000C000E00369E
:100330000051002B00260012000F0037002F00286C
:1003400000270013003300380030004E002D00312C
:10035000003400E500015100002900010001000106
:1003600000010000003A001E02200222022E002E90
:100370005D3B001F02210223020100C95C3C002FEB
:100380000226022F000100CA5C3D00300227023025
:100390000001002D5D3E003102350035020000C332
:1003A0005C010001000000010000002C5D01000163
:1003B00000000001000000C25C3F00520051002418
:1003C0000200002B5D4000240021001E00010001FE
:1003D000004100250022001F003700C55C420026B6
:1003E00000230020002700C65C430025022E0231B6
:1003F000002E000100440045000100010001000042
:1004000000010001000100010001000000010001E5
:100410000001000100085D010001000100F200017F
:1004200000010001000100F000F1000100F40001F2
:100430000001000100F3000100F5000100010001CE
:1004400000010001000000010001000100000001A6
:100450000000000100010001000000010000000197
:100460000001000100010001000000010001000185
:100470000001000100A9000100010001000100AC21
:1004800000AA00B600010001000100AB00A80001B5
:1004900000010001000100010001000100005C01F9
:1004A00000AE0001000100000032190A00047F3F85
:1004B0001F643214643214783C1E1E140A050A00AC
:1004C000000000000306B200080001000000A800C0
:1004D000080002000200A0001400030057494E5516
:1004E00053420000000000000000000084000400EF
:1004F00007002A004400650076006900630065007B
:1005000049006E00740065007200660061006300BF
:10051000650047005500490044007300000050008A
:100520007B0039004400420037004600310046009D
:1005300044002D0037004500370041002D003400F5
:100540003000300038002D00390033003600420002
:100550002D003600420041003600430031003900D2
:10056000410033003000380063007D0000000000CF
:100570001B0301636F6E6669677572652E6572672E
:100580006F646F782D657A2E636F6D000501090227
:10059000A10185020901A10005091901290515001C
:1005A00025019505750181029501750381010501FC
:1005B000093009311581257F9502750881060938B2
:1005C0001581257F950175088106050C0A380215ED
:1005D00081257F950175088106C0C005010980A1AC
:1005E00001850319012AB700150126B70095017589
:1005F000108100C0050C0901A101850419012AA080
:1006000002150126A002950175108100C00501099F
:1006100006A1018505050719E029E71500250195C3
:1006200008750181020507190029EF1500250195BC
:10063000F0750181020508190129059505750191DB
:1006400002950175039101C005010906A101050785
:1006500019E029E71500250195087501810295012A
:10066000750881010507190029FF150026FF00956F
:100670000675088100050819012905950575019180
:1006800002950175039101C009025200030100A007
:10069000FA09040000010301010009211101000110
:1006A0002240000705810308000A09040100010334
:1006B00000000009211101000122BC00070582038E
:1006C00020000A0904020002FF000000070583035E
:1006D0004000050705040340000512011002000058
:1006E000000897327549010001020301040330003C
:1006F000000022034500720067006F0044006F0095
:100700007800200045005A0020005300680069006E
:100710006E006500000030035A00530041002000C5
:1007200054006500630068006E006F006C006F008D
:100730006700790020004C00610062007300200017
:1007400049006E006300000004030904050F39002E
:10075000021C100500DF60DDD88945C74C9CD265BE
:100760009D9E648A9F00000306B200450018100594
:100770000038B60834A909A0478BFDA0768815B6C5
:1007800065000142000011241FBECFEFDAE0DEBF9A
:10079000CDBF24E0A6E3B2E001C01D92A231B207B2
:1007A000E1F712E0A0E0B1E0E6EAFAE502C0059068
:1007B0000D92A633B107D9F70E941A250C940B2D80
:1007C0000C940000E8EDF0E080818E7F8083109231
:1007D000E2001092DA001092E100A0EEB0E08C91FD
:1007E00081608C9380818F77808319BCA7EDB0E006
:1007F0008C918E7F8C9380818F7E80831092D80322
:1008000008952091E4003091E50095E6A90120913A
:10081000EC00822F817020FF06C08091E80080FFED
:1008200006C080E008952091E80022FD1AC0809162
:100830000404882389F0853089F08091EB0085FDE0
:100840000FC02091E4003091E50042175307F9F200
:100850009150E1F684E0089582E0089583E00895E0
:1008600081E00895EF92FF920F931F93CF937C0145
:100870008B010E940104C82F882371F08C2FCF9127
:100880001F910F91FF90EF900895F70181917F01E3
:100890008093F100015011090115110579F3809140
:1008A000E80085FDF2CF8091E8008E778093E80024
:1008B0000E940104882381F3C82FE0CF80910604B1
:1008C00087FF13C08091E80082FF06C08091E80096
:1008D0008B778093E80004C0809104048111F2CFEB
:1008E0000895809104048823D9F38091E80080FF63
:1008F000F8CF8091E8008E77ECCF982F9093E900A5
:10090000242F762F50E0891731F07091EC00209160
:10091000ED005091F00021FD07C09F5F973071F707
:100920008093E90081E008953091EB003E7F3093A1
:10093000EB003091ED003D7F3093ED003091EB0006
:1009400031603093EB007093EC002093ED005093F6
:10095000F0002091EE0027FDE0CF80E00895CF92D7
:10096000DF92EF92FF920F931F93CF93DF93C8ED27
:10097000D0E088818F7E8883E7EDF0E08081816020
:10098000808384E082BF81E08093D80388818E7F5A
:10099000888302EE10E0F80110821092DA0081EEF6
:1009A000C82ED12CF601108288818F7788838881A8
:1009B0008068888388818F7D888319BC10920404A5
:1009C00010920504109203041092020490EEE92E96
:1009D000F12CF70180818B7F8083888181608883FF
:1009E00042E060E080E00E947D04F60180818E7F1D
:1009F0008083F8018081816080838081886080832A
:100A0000F70180818E7F8083888180618883DF9178
:100A1000CF911F910F91FF90EF90DF90CF900895AD
:100A2000FC0180910C0490910D0486179707A0F0AB
:100A30006115710529F48091E8008E778093E800B4
:100A400090E06115710551F4911108C08091E800A2
:100A500082FF35C080E00895BC01F2CF809104048C
:100A60008823C9F18530C9F18091E80083FD31C048
:100A70008091E80082FDEACF8091E80080FFE1CF1D
:100A80008091F3002091F200382F6115710519F063
:100A90002830310558F091E02830310509F090E018
:100AA0008091E8008E778093E800CBCF849180938B
:100AB000F1003196615071092F5F3F4FE6CF809171
:100AC0000404882341F0853041F08091E80083FFE1
:100AD000BDCF81E0089582E0089583E00895FC0190
:100AE00080910C0490910D0486179707A0F0611572
:100AF000710529F49091E8009E779093E80090E0CA
:100B00006115710551F4911108C08091E80082FFD0
:100B100034C080E00895BC01F2CF809104048823A2
:100B2000C1F18530C1F18091E80083FD30C0809132
:100B3000E80082FDEACF8091E80080FFE1CF80915C
:100B4000F3002091F200382F6115710519F028305B
:100B5000310558F091E02830310509F090E02091FE
:100B6000E8002E772093E800CBCF81918093F100AD
:100B7000615071092F5F3F4FE7CF809104048823B4
:100B800041F0853041F08091E80083FFBECF81E0E5
:100B9000089582E0089583E0089508958091E10327
:100BA000089520910404243099F423E02093E9006F
:100BB00070E050E040E00E943204882321F010925F
:100BC000D6031092D7038091E8008E778093E800D7
:100BD00008959091BD03803F59F48091BE0387FF33
:100BE0000DC01092BE0391110BC01092B80308C043
:100BF000813F81F48091BE0318169CF3992381F004
:100C00008091BF039091C003892B09F064C01092BA
:100C1000B5030895823F49F497FFF0CF1092BD03CA
:100C20008091BE038111ECCFE0CF833F19F41916F8
:100C3000ACF3E4CF2091BF03893F29F41216F4F6F8
:100C40001092BF03DBCF8A3F19F427FFD7CFF8CF2D
:100C50002091C0038B3F29F427FFD0CF1092C0030F
:100C6000CDCF8C3F19F41216CCF3C8CF843F31F4AA
:100C70008091BC038E7F8093BC03C0CF853F21F45D
:100C80008091BC038D7FF7CF863F21F48091BC0318
:100C90008B7FF1CF873F21F48091BC03877FEBCF1F
:100CA000883F21F48091BC038F7EE5CF8D3F31F4E6
:100CB000809180038E7F80938003A0CF8E3F21F4AC
:100CC000809180038D7FF7CF8F3F09F097CF809180
:100CD00080038B7FF0CF08958091800380FD1AC040
:100CE00081FD14C082FD14C08091B503882391F06A
:100CF0008C3370F427E0829FC00111246CE370E014
:100D00000E94A32A862F672B29F0089583E0089577
:100D100087E0089581E008958091800380FD16C0EA
:100D200081FD16C082FD18C08091B803882391F020
:100D30008C3390F423E2829FC00111246CE370E0B5
:100D40000E94A32A862F672B49F0089588E0089512
:100D500081E1089585E0089583E2089581E0089592
:100D6000803F31F40E948C0681958093BE030895E4
:100D7000813F19F40E948C06F8CF823F31F40E9423
:100D80008C0681958093BD030895833F19F40E94DA
:100D90008C06F8CF893F29F40E946C068093BF032C
:100DA00008958A3F21F40E946C068195F7CF8B3F0E
:100DB00031F40E946C0681958093C00308958C3FA6
:100DC00019F40E946C06F8CF843F31F48091BC0383
:100DD00081608093BC030895853F21F48091BC031A
:100DE0008260F7CF863F21F48091BC038460F1CF0D
:100DF000873F21F48091BC038860EBCF883F21F4CA
:100E00008091BC038061E5CF8D3F31F480918003F8
:100E100081608093800308958E3F21F48091800348
:100E20008260F7CF8F3FB9F7809180038460F1CF64
:100E30009C014FB7F89480917C0390917D03A09121
:100E40007E03B0917F034FBF821B930B08952091C7
:100E500024012223C9F02091990327FF15C0E62F12
:100E6000E695E695E695EE31D8F4E80FF92FF11DF9
:100E7000677021E030E001C0220F6A95EAF7209503
:100E80008281282322830895FC01329608962191BD
:100E9000621303C0DF0111971C92E817F907B9F735
:100EA0000895209124012223C1F02091990327FF66
:100EB00014C0E62FE695E695E695EE31F8F4E80FD6
:100EC000F92FF11D677021E030E001C0220F6A9513
:100ED000EAF78281822B82830895FC0132962FEFFC
:100EE00030E04191641751F02F3F19F4411101C0D6
:100EF000232F3F5F3630A9F72F3F09F40895820F63
:100F0000911D27FD9A95FC0162830895CF92DF928F
:100F1000EF92FF926C01EE24FF2420E0C114D10473
:100F2000E104F10419F0C701B60120E1C72ED82E63
:100F3000E92EFF24C114D104E104F10419F0285F63
:100F4000C701B6016B017C0154E0F694E794D79495
:100F5000C7945A95D1F7C114D104E104F10419F0F2
:100F60002C5FC701B6016B017C0142E0F694E79467
:100F7000D794C7944A95D1F7C114D104E104F10480
:100F800019F02E5FC701B6019695879577956795FD
:100F9000672B682B692B09F02F5F822FFF90EF9052
:100FA000DF90CF900895809177038111109277039D
:100FB00008958091760390917503892B9091740325
:100FC000892B80933602909177039923A1F0892B86
:100FD0008093360280912401882341F18091990306
:100FE00087FF24C08EE1E8E3F2E090E0815000F555
:100FF00091110E94D307E0919C03F0919D033097DB
:10100000E1F080912401882359F08091990387FFB2
:1010100007C0809136028093370285E080933602C4
:101020000280F381E02D86E392E0099486E0DBCF35
:1010300021912223D9F29F5FD9CF0895E92FEE0F96
:10104000E90FEE0F8E0F982F9770869586958695EF
:1010500025E0829FF0011124E45CFC4F50E040E069
:1010600080E0219130E0092E02C0369527950A9440
:10107000E2F721703327042E01C0220F0A94EAF709
:10108000822B4F5F5F4F4530510559F70895E92F87
:10109000EE0FE90FEE0F8E0F982F977041E001C011
:1010A000440F9A95EAF786958695869595E0899FEF
:1010B000F0011124E45CFC4F30E020E070E051913D
:1010C000DF011197CB01022E02C0969587950A94F5
:1010D000E2F7817081958527842385278C932F5F84
:1010E0003F4F2530310559F7089580913B0390918A
:1010F0000A03981301C008958F5F8770FACF882381
:1011000041F08095909175038923809375030C9429
:10111000D9070895882339F090917503982B9093FF
:1011200075030C94D9070895882341F08095909118
:1011300076038923809376030C94D9070895882336
:1011400039F090917603982B909376030C94D907FD
:1011500008952091EE023091EF022817390771F0BF
:101160009093EF028093EE02E0919C03F0919D0337
:10117000309721F00084F185E02D099408952091A5
:10118000EC023091ED022817390771F09093ED02CF
:101190008093EC02E0919C03F0919D03309721F045
:1011A0000680F781E02D09940895E0919C03F09169
:1011B0009D03309721F00190F081E02D099480E0AB
:1011C0000895FA01811101C0FB0109948091D903AE
:1011D000982F9E7F29F4817082608093D9030895AF
:1011E0008635E8F381708465F8CFAF92BF92DF92C5
:1011F000EF92FF920F931F93CF93DF93082F162F39
:10120000E901E42FF0E0E455FF4F611111C0E491D2
:101210005E2F4E2F4983E8835A831B82DF91CF9143
:101220001F910F91FF90EF90DF90BF90AF900895C6
:10123000E62EF12C4491D42EE42FF0E026E0829F9C
:10124000C00111242FEF30E0B9010E948F2A802FB6
:1012500090E0880F991F55E5569FD001579FB00D1C
:1012600011248A1B9B0B982F990F890F5901AE18D7
:10127000BF08AE9ED001AF9EB00DBE9EB00D112432
:101280005B2F189F80011124012F11275901A01AEB
:10129000B10AAE9E8001AF9E100DBE9E100D1124AE
:1012A0005901A81AB108AE9CC001AF9C900DBE9C1C
:1012B000900D1124892F9927281B390B2E9FC001CF
:1012C0002F9F900D3E9F900D1124E92F62307105E4
:1012D000A1F050F46115710509F49CCF61307105DE
:1012E00081F0EB2F512F96CF6430710569F080F0BB
:1012F0006630710509F48ECFF4CFE42F4B2F592FB0
:1013000089CFE42F412F86CFEB2F542F492F82CF47
:101310004B2F5D2DE12F7ECF9091990392FF06C058
:10132000282F28712830F9F4877F846093FF06C046
:10133000282F28712831F1F4877E846120919A0347
:1013400020FF06C0382F38713830D9F4877F81608C
:1013500021FF06C0282F28712831D1F4877E8161B2
:1013600094FD877E0895282F24712430F9F68B7F11
:101370008860DCCF282F2471243101F78B7E8861AF
:10138000DDCF382F3171313019F78E7F8860E0CF93
:10139000282F2171213121F78E7E8861E1CFCF93F3
:1013A000DF93972F70E026E0929F600D711D11244E
:1013B000FB0134E5839FE00DF11D1124EE0FFF1FAB
:1013C000EF54FD4FC591D491CE01C238D105B9F18A
:1013D000E8F5C133D10509F499C050F5C932D105FA
:1013E00009F48DC0CA32D10509F497C0C11542E590
:1013F000D40708F0C4C0C11521E5D20708F038C1F0
:10140000C83ED10508F09DC0C03ED10568F5C83A78
:10141000D10508F089C0C53AD10508F005C1C13031
:10142000D10511F1209709F443C02497E8F440C096
:10143000C533D10509F45CC0C933D105B9F6209193
:101440009903237089F080EE90E00EC0C33ED10571
:1014500091F168F4C03ED105F9F0C23ED10531F6F4
:101460002091990322FD20C0DF91CF910895C63EBF
:10147000D10561F1C73ED10581F1C43ED10509F026
:10148000B5CF20919A0321FFEFCF8091990384FD7E
:101490000FC087EE90E0E8CF2091990320FD19C19D
:1014A00030919A0330FFE0CF83EE90E024FFDCCF51
:1014B00090E080E0D9CF2091990322FD0DC13091B9
:1014C0009A0330FDC0CF24FFCFCFF2CF20919903F4
:1014D00023FFCACF24FDECCFDCCF2091990323FD5D
:1014E000FEC030919A0331FFEECF84EE90E0BCCF86
:1014F0002091990325FFB8CF89E290E0B5CF2091E4
:10150000990325FFB1CF85E390E0AECF20919903F9
:1015100026FFAACF8AE290E0A7CF2091990326FF69
:10152000A3CF81E390E0A0CFCF3BD10508F6C85A06
:10153000D0E0CC0FDD1FC95FDD4F888199819464B5
:1015400093CFC11530E2D30760F4C11541E0D40751
:1015500008F08ACFCE019065C03FD10508F084CF56
:10156000A7CFC11580E4D80708F4A2CFC11590E534
:10157000D90708F061C0CE019F70906A75CFC11580
:1015800026E5D20718F5C11535E5D30708F086C062
:10159000C11544E5D40708F07CC09C2F969596951C
:1015A000AE0143705527C115D34508F466C021E04C
:1015B00030E002C0220F331F4A95E2F740E2949FC9
:1015C000C0011124822B932B9A684ECFC1159AE546
:1015D000D90778F4C11529E5D20708F069C0C1150B
:1015E00038E5D30708F464CF9C2F8827806F906A72
:1015F0003BCFC1154BE5D40708F45ACFC1158CE594
:10160000D80708F462C0CE0190568115904208F0C8
:101610004FCF8D2F8F710E948C0990E0982F8827D3
:1016200088279F718C2B42C0C55AD0E0CC5FDD4F1C
:10163000888190E0906418CF9E01E4E0369527956C
:10164000EA95E1F723708C2F86958695837030E2BA
:10165000839FC0011124922BC37021E030E002C0AF
:10166000220F331FCA95E2F7822B932B9C68FCCE86
:101670009C2F8827816F906AF7CE21E030E002C06E
:10168000220F331F4A95E2F740E2949FC0011124D4
:10169000EBCF9C2F8827846F906AE6CE8C2F0E9418
:1016A0008C0990E0982F882788279F719062DCCE64
:1016B0008C2F8F700E948C0934E0D695C7953A958F
:1016C000E1F7CF709C2F9069CFCECE01992790661D
:1016D000CBCE89E390E0C8CE82EE90E0C5CE86EE18
:1016E00090E0C2CEBF92CF92DF92EF92FF920F9323
:1016F0001F93CF93DF938C01C090D103D090D2037E
:10170000E090D303F090D403809178039091790313
:10171000A0917A03B0917B03C82AD92AEA2AFB2A2E
:10172000CFE1D0E0BC2ED701C6010C2E04C0B69587
:10173000A795979587950A94D2F780FD0EC02197BB
:1017400088F7B12C8B2DDF91CF911F910F91FF90D6
:10175000EF90DF90CF90BF900895B8018C2F0E943A
:10176000CF09019761F3EECFCF93DF93EC010E9495
:10177000720BBE01DF91CF910C94CF090E94B40B84
:10178000292F2F7092959F7092509E3078F4E92FF8
:10179000F0E0E35FF24D0C94B72A803F19F020F49B
:1017A000883E20F481E00895843FE1F380E00895CD
:1017B000883EC0F3813FD1F7F5CF822F869586957D
:1017C0008695089527982F98089526982E9808951D
:1017D00025982D98089556985E980895279A2F9ADF
:1017E0000895269A2E9A0895259A2D9A0895CF92B3
:1017F000DF92EF92FF92CF936B017C010E948607EC
:10180000C82F0E94EB0B0E94E80B0E94E50B0E9480
:10181000E20BC150C73040F4EC2FF0E0E55EF24D32
:101820000C94B72A0E94F40BC701B601CF91FF9028
:10183000EF90DF90CF9008950E94F40B0E94F10B7F
:10184000F3CF0E94F40B0E94EE0BEECF0E94F40B3C
:101850000E94F10BF8CF2098289821982998229877
:101860002A9823982B9852985A9853985B983E98A8
:10187000469808958098889A8198899A84988C9A35
:1018800085988D9A86988E9A87988F9A0895CF9387
:10189000DF9300D00F92CDB7DEB79091040494305F
:1018A00019F589837B836A8382E08093E9008FEF57
:1018B0009091E800815095FD06C095ED9A95F1F75D
:1018C00000008111F5CF8091E80085FF0DC050E048
:1018D00040E063E070E0CE0101960E943204809106
:1018E000E8008E778093E8000F900F900F90DF91C3
:1018F000CF910895BC0184E00C94470CBC0183E0B7
:101900000C94470C9C0182E08093E9009FEF80914A
:10191000E800915085FD06C085ED8A95F1F700003D
:101920009111F5CF8091E80085FF0CC050E040E0B8
:1019300066E070E0C9010E9432048091E8008E7771
:101940008093E8000895CF93DF93EC018091240108
:101950008823B1F18091990387FF32C060E282E071
:101960008093E9008FEF9091E800815095FD06C0CB
:1019700095ED9A95F1F700008111F5CF8091E8007F
:1019800085FF1BC08091240170E050E040E0811190
:1019900004C050E040E068E070E0CE010E943204F4
:1019A0008091E8008E778093E80080E2FE01A2EE4D
:1019B000B3E001900D928A95E1F7DF91CF91089500
:1019C00068E081E0CDCFEF92FF920F931F93CF930A
:1019D000DF930E94EB0B0E94E80B0E94E50B0E9434
:1019E000E20B88E8E82EF12C8FEF90E0F70191836D
:1019F00080830AE810E0F80191838083CCE8D0E08E
:101A0000998388830E94F40BFFEF20E782E0F15076
:101A100020408040E1F700C000000E94F10B9FEFE2
:101A2000E0E7F2E09150E040F040E1F700C0000054
:101A30000E94EE0B2FEF80E792E021508040904013
:101A4000E1F700C000000E94E80BEFEFF0E722E0B2
:101A5000E150F0402040E1F700C000000E94E50B9B
:101A60008FEF90E7E2E081509040E040E1F700C066
:101A700000000E94E20B809187038770FFEF8F9F29
:101A8000C001112495958795959587959927F7011C
:101A900091838083F80191838083998388830E9456
:101AA000EB0B0E94E80B0E94E50BDF91CF911F9199
:101AB0000F91FF90EF900C94E20BCF9384E090E0B5
:101AC0000E94602CC82F81E290E00E94602C982F29
:101AD0008C2FCF910895CF92DF92EF92FF926B01FE
:101AE0007C010E94E608B701A60188E090E0FF9023
:101AF000EF90DF90CF900C94862C8091DD038823AB
:101B000019F081508093DD036091D9037091DA035D
:101B10008091DB039091DC030C946B0D8091DD03CD
:101B2000833018F48F5F8093DD036091D903709147
:101B3000DA038091DB039091DC030C946B0DE9EDEB
:101B4000F3E083E0808311828FEF828383831482AA
:101B500060817181828193810C946B0D6FEE7EEFB9
:101B600090E080E00E94922C60E082E090E00E9491
:101B7000742C60E083E090E00E94742C1092780353
:101B80001092790310927A0310927B0360E084E054
:101B900090E00E94742C60E081E290E00E94742C3E
:101BA00060E085E090E00E94742C60E086E090E0C8
:101BB0000E94742C6FEF87E090E00E94742C40E04C
:101BC00050E0BA0188E090E00E94862C60E08DE051
:101BD00090E00E94742C40E050E0BA0188E190E06F
:101BE0000E94862C60E087E190E00E94742C40E027
:101BF00050E0BA018CE190E00E94862C60E080E227
:101C000090E00E94742C1092870310928803109227
:101C1000890310928A0384E0806180938703409156
:101C20008703509188036091890370918A038FE044
:101C300090E00E94862C40E050E0BA0183E190E001
:101C40000C94862CCF93C82F873070F580911801A3
:101C500090911901892B89F564E670E080E40E9477
:101C6000C2299093190180931801892BD1F464E65D
:101C700070E082E10E941E2A90931901809318015E
:101C8000892B79F481E090E001C0880FCA95EAF7CA
:101C900064E670E080950E941E2A9093190180935B
:101CA0001801CF910C94712A8A30B9F040F4883031
:101CB00071F0893079F0209A2898CF9108958C306E
:101CC00091F070F08D30B9F73E9A4698F6CF219A90
:101CD0002998F3CF229A2A98F0CF239A2B98EDCF08
:101CE000529A5A98EACF539A5B98E7CFCF93DF93F3
:101CF0008091D90380FD0BC0E3E6F2E011821082EF
:101D000012821382349652E0EF39F507B9F7C3E631
:101D1000D2E0FE01928120813181892F291708F4B8
:101D2000822F381708F4832F8383381B3183281BB5
:101D30002083981B9283349682E0EF39F80751F79D
:101D40000E94BC2964E670E084E80E94C22964E62F
:101D500070E088810E941E2A64E670E089810E94FA
:101D60001E2A64E670E08A810E941E2A64E670E002
:101D70008B810E941E2A249692E0CF39D90739F729
:101D80000E94712A579A3BB13F772BB120684FB719
:101D9000F89483E692E0FC015191CF0168E02BB901
:101DA000000000C057FF3BB9550F000000C000C045
:101DB00000C03BB900C06A9591F7F2E08F399F07E8
:101DC00051F74FBF8FE594E00197F1F700C0000095
:101DD000DF91CF9108958F929F92AF92BF92CF9251
:101DE000DF92EF92FF920F931F93CF93DF93FC014B
:101DF000B280948081E08483CFE9D2E003E612E0F0
:101E00008BE4A82E88248394EE24EA94F12C2BE40E
:101E1000C22ED12C91101DC01B821A8298014A81BA
:101E2000698188810E94F50825960C5F1F4F82E02A
:101E3000CA3ED80779F7DF91CF911F910F91FF909C
:101E4000EF90DF90CF90BF90AF909F908F900C94C9
:101E5000760E2B81222309F121502B833C818A2D80
:101E6000821B311101C0822F9091DC03899FC00138
:101E70001124B6010E948F2A6A83211104C03323E2
:101E800011F01C82AB8222E02B1540F28091DA0324
:101E900088838091DB038983C1CF0E94182B823015
:101EA00091400CF0BBCF82E08B15C0F40E94182B40
:101EB000B7010E94A32A888322E02B1590F40E9488
:101EC000182B2091DB032695622F70E00E94A32A35
:101ED000280F29831A82AB828C82A0CF8091DA03EB
:101EE000EACF2091DB03F5CFEF92FF921F93CF93C0
:101EF000DF93EC0183E6E82E82E0F82E10E08C817F
:101F000097014091DC036091DB03810F0E94F5088B
:101F10001F5E84E0E80EF11C1F3F89F70E94760ED9
:101F20009A818C8190FF08C08F5F8C83DF91CF9165
:101F30001F91FF90EF9008958150F7CFBF92CF92FD
:101F4000DF92EF92FF920F931F93CF93DF93FC01E9
:101F50008281DD24DA9480FD02C0DD24D39403E67F
:101F600012E0D0E0C0E02FE0B22EF8011182108222
:101F70001282138294E0E92EF12CC12C8091600230
:101F80008C0D80310CF43DC06B2D0E94812A892F6D
:101F9000082E000C990B8C179D0791F48091DC039F
:101FA0008E9DA0018F9D500D1124559547955595F7
:101FB000479598016091DB038091DA030E94F50850
:101FC000CD0CF1E0EF1AF108C9F621960C5F1F4F16
:101FD000CF30D10551F60E94760E8091600291E0DB
:101FE000D91215C0811111C08EE080936002DF917B
:101FF000CF911F910F91FF90EF90DF90CF90BF9006
:10200000089587FFC5CF815FC3CF8150EECF90E0A9
:102010000196BE010E94A32AE8CF0F931F93CF938E
:10202000DF93C3E6D2E0FE01118210821282138296
:10203000349682E0EF39F807B9F710E000E08091BC
:102040006102082E000C990B081719078CF180917A
:102050001601082E000C990B801791074CF19E0178
:102060004091DC036091DB038091DA030E94F50864
:102070000F5F1F4F24960F30110509F70E94760E4F
:102080008091150190916102980F909361022091C7
:102090001601280F20931601121614F49E301CF01E
:1020A000819580931501DF91CF911F910F91089534
:1020B000198218821A821B82DBCF8F929F92AF9275
:1020C000BF92CF92DF92EF92FF920F931F93CF9325
:1020D000DF93EC014C81042F10E09801D8010E949D
:1020E000FC2C9B01AC010E94C72C4B015C01E0E27F
:1020F000F0E0E01BF10BA5E5B0E0AC019B010E9414
:10210000C72C6B017C019F01DF010E94BD2A9B014E
:10211000AC010E94D22C9B01AC01280D391D4A1D37
:102120005B1DC701B6010E94DA2CF22E822F90E0CF
:1021300039E23F15D8F143E0249F900111243595F1
:102140002795122F109593E6C92E92E0D92E00E024
:1021500085E5E82EEF188E2D01FD8F2D9601412F7C
:102160006091DB030E94F5080F5F54E0C50ED11C9F
:102170000F3089F70E94760E9C8181E0992319F037
:10218000903219F48FEF8093170180911701890F16
:102190008C83DF91CF911F910F91FF90EF90DF9093
:1021A000CF90BF90AF909F908F90089525E530E03D
:1021B000A901481B590BCA019A01220F331F280F8E
:1021C000391F37FFBCCF2F5F3F4FB9CFEF92FF9240
:1021D0000F931F93CF93DF938C01C3E6D2E0F12CD2
:1021E000E12CF80194816091DB038091DA03F7E040
:1021F000EF16F104FCF49923F9F09E014091DC0301
:102200000E94F5082FEFE21AF20A24968FE0E816F2
:10221000F10439F70E94760EF801848190E001966E
:10222000817099278483DF91CF911F910F91FF9047
:10223000EF900895992309F39E0140E0E1CF90913A
:10224000D90390FF0DC0E3E6F2E08183608342830F
:102250001382349692E0EF39F907B9F70C94760EB1
:1022600008950F931F93CF93DF9300D000D0CDB785
:10227000DEB78C018091620281110AC09E012F5F3E
:102280003F4F4FEF6FEF0E94F5088A818093620203
:10229000F8016481613069F08091620240E0662358
:1022A00061F040E0623011F44091620280E060E051
:1022B00004C06091620240E080E00E941F11F801BA
:1022C000848190E0019663E070E00E94A32A8483F9
:1022D0000F900F900F900F90DF91CF911F910F9162
:1022E0000895CF93DF9300D000D0CDB7DEB79091A3
:1022F000D90390FF0AC09E012F5F3F4F0E94F5084F
:102300004B8169818A810E941F110F900F900F905D
:102310000F90DF91CF910895CF93DF93EC01EC8183
:10232000F0E0EF54FE4F4491E9EDF3E062818181EA
:102330000E9471118C818F5F8C83DF91CF91089502
:10234000CF93DF93EC01E9EDF3E0438162818C816F
:102350000E9471118C818F5F8C83DF91CF910895E2
:102360005F926F927F928F929F92AF92BF92CF9225
:10237000DF92EF92FF920F931F93CF93DF9300D0E2
:1023800000D0CDB7DEB7182F762E042F622E909195
:10239000D90390FF29C0E92FE695AE2FB0E0AF5CDE
:1023A000BE4F8C918093B3039E7F923089F59E013E
:1023B0002F5F3F4F812F0E94F5084B8169818A81F1
:1023C0000E941F111093DA037092DB030093DC0369
:1023D000662051F06091D9037091DA038091DB039C
:1023E0009091DC030E946B0D0F900F900F900F9057
:1023F000DF91CF911F910F91FF90EF90DF90CF90E1
:10240000BF90AF909F908F907F906F905F90089556
:10241000823019F40091DC03D5CF863019F4109185
:10242000DA03D0CF8930D9F3893161F6E9518E2FA3
:102430008170582EE695F0E0E455FE4FA590B490DB
:10244000BB2483E6E82E82E0F82ED12CC12C9FE03D
:10245000892E912CC601B4010E948F2A812F511020
:1024600013C0860F9701402F672D0E94F508CA0CF4
:10247000DB1C84E0E80EF11C8FE9E81682E0F80628
:1024800049F70E94760E9ECF861BECCFE9EDF3E074
:1024900043812CE0421B08F440E021E0628181810D
:1024A0000C94B011E9EDF3E043812CE0420F08F405
:1024B0004FEF21E0628181810C94B011E9EDF3E0EE
:1024C00062812FEF621B08F460E021E0438181818B
:1024D0000C94B011E9EDF3E062812FEF620F08F484
:1024E0006FEF21E0438181810C94B011E9EDF3E0BD
:1024F000818121E0438162818C500C94B011E9ED1F
:10250000F3E0818121E043816281845F0C94B0110A
:1025100080E290E090931901809318018091560217
:1025200081110EC00E94BC2981E0809356022FEFDA
:1025300083ED90E3215080409040E1F700C000001F
:1025400064E670E080E40E94C229909319018093B0
:102550001801892B09F04EC064E670E080E00E940B
:102560001E2A9093190180931801892B09F042C00B
:1025700064E670E080E00E941E2A90931901809327
:102580001801892BB9F564E670E08FE30E941E2ADA
:102590009093190180931801892B61F50E94712A8B
:1025A00064E670E080E40E94C22990931901809350
:1025B0001801892BF9F464E670E08CE00E941E2A71
:1025C0009093190180931801892BA1F464E670E0BF
:1025D00080E00E941E2A9093190180931801892B94
:1025E00049F464E670E08FE30E941E2A909319017B
:1025F000809318010E94712A809118010895CF9349
:10260000873050F58091180190911901C0E0892B15
:1026100071F464E670E081E40E94C229909319018C
:1026200080931801892B31F0C0E00E94712A8C2F11
:10263000CF91089584E690E00E944D2A97FF05C04F
:102640009093190180931801EFCFC82FC095109275
:10265000190110921801E9CFCFB18FB186958695F7
:102660008C73C3708C2BC82FC095E1CF78941F92C8
:102670001FB61F9211248F939F93AF93BF938091A6
:102680007C0390917D03A0917E03B0917F0301961E
:10269000A11DB11D80937C0390937D03A0937E03C5
:1026A000B0937F03BF91AF919F918F911F901FBEF9
:1026B0001F9018952FB7F89480917C0390917D031B
:1026C000A0917E03B0917F032FBF08950E945A13FB
:1026D0009C019091BD038091BE03982B21F0309313
:1026E000BA032093B9039091BF038091C003982B44
:1026F00021F03093B7032093B603E0919C03F0914F
:102700009D03309749F082E08093BB030480F581FC
:10271000E02D8BEB93E009940895109275031092CD
:1027200074030E94D90786E0EBEBF3E0DF011D9212
:102730008A95E9F71092B8031092B50310928003BE
:102740000E94661390E080E00E94BF0890E080E065
:102750000C94A908CF92DF92EF92FF92CF93DF9370
:1027600000D000D0CDB7DEB70E94F70B6B017C0123
:102770008091D503882321F08091D603811115C063
:10278000C092D103D092D203E092D303F092D4034B
:102790000E948D130F900F900F900F90DF91CF91AB
:1027A000FF90EF90DF90CF900895198282E08A83A6
:1027B000C701B6010E9486078B838EEF8C8364E08D
:1027C000CE0101960E94D105DBCF0F931F9341E00C
:1027D00050E060E070E004C0440F551F661F771F93
:1027E0008A95D2F7CB01BA01609570958095909546
:1027F0000091D1031091D2032091D3033091D403DF
:1028000060237123822393231F910F910C94AA13A9
:10281000909173038095892380937303282F2770E9
:1028200071F4282F082E000C330B9217130639F081
:102830008595859585950E94E513109273030895FB
:102840000F931F9341E050E060E070E004C0440F3C
:10285000551F661F771F8A95D2F78091D1039091FB
:10286000D203A091D303B091D4038A019B01082B1A
:10287000192B2A2B3B2BC901B8011F910F910C94E6
:10288000AA13609378037093790380937A039093EB
:102890007B030C948D131092760380912401E8E35E
:1028A000F2E0882359F08091990387FF07C08EE1F9
:1028B000DF011D928A95E9F70C948D1386E0F8CF1D
:1028C0001F93CF93DF93CDB7DEB7AA970FB6F894D7
:1028D000DEBF0FBECDBF86E094E02091F100FC0189
:1028E0002193CF01F4E08E309F07B9F78091070460
:1028F000893009F444C018F5823009F4B7C0833038
:1029000009F46CC0813031F580910604813A11F5EB
:102910008091E800877F8093E80080910A0490917D
:102920000B04892B41F560E282EE93E070E00E9497
:102930006F058091E8008B778093E8000BC08B30A7
:1029400009F469C008F481C0823409F4A0C0853458
:1029500009F4BAC08091E80083FF65C28091060443
:10296000909107049A3008F05EC2E92FF0E0EE5D26
:10297000F24D0C94B72A60E090E080E0D7CF8091D0
:102980000604813239F780910A0490910B04029772
:1029900008F78091E800877F8093E8008091E80045
:1029A00082FF17C09091F3008091F200029729F402
:1029B0008091F1008B7F813021F48091F100809330
:1029C000E1038091E8008B778093E8000E945E0429
:1029D000C1CF809104048111E1CFBCCF8091060466
:1029E000813A09F0B7CF80910A0490910B04892BAA
:1029F00009F0B0CF8091E800877F8093E800809154
:102A0000E80080FFFCCF809124018093F100809149
:102A1000E8008E77D9CF80910604813209F09ACFF1
:102A200080910A0490910B04892B09F093CF809137
:102A3000E800877F8093E8000E945E04809108048C
:102A4000809324010E944B1485CF8091060481322B
:102A500009F080CF8091E800877F8093E8000E9492
:102A60005E04809109048093E00374CF8091060492
:102A7000813A09F06FCF8091E800877F8093E8006A
:102A80008091E80080FFFCCF8091E003BECF809171
:102A90000604803C09F05ECF80910A0490910B04FB
:102AA000029739F58091080490910904892B09F562
:102AB0008091E800877F8093E8006BE170E080E719
:102AC00095E00E94100582CF80910604803C09F0B9
:102AD00041CF80910A0490910B04079751F48091A3
:102AE000E800877F8093E80062EB70E08EEB94E073
:102AF000E8CF8091EB0080628093EB002BCF803891
:102B000099F0823809F08FC180910A048F70873064
:102B100008F089C18093E9008091EB0085FB88274C
:102B200080F91092E90006C080910204909103049C
:102B3000911182609091E800977F9093E8008093D4
:102B4000F1001092F1008091E8008E7768C188232F
:102B500009F456C1823009F066C1809108048111E0
:102B600059C180910A048F702FEF280F263008F08A
:102B70005AC18093E9002091EB0020FF4BC19330B4
:102B800031F48091EB0080628093EB0043C190911F
:102B9000EB0090619093EB0021E030E001C0220F48
:102BA0008A95EAF72093EA001092EA008091EB0000
:102BB0008860EACF811137C1109108041F77809196
:102BC000E3008078812B8093E3008091E800877F89
:102BD0008093E8000E945E048091E80080FFFCCFB3
:102BE0008091E30080688093E30082E0111183E02C
:102BF0008093040418C18058823008F014C1809179
:102C00000804909109048C3D23E09207A1F583E02C
:102C10008A838AE289834FB7F894DE01139620E015
:102C20003EE051E2E32FF0E050935700E49120FFA3
:102C300003C0E295EF703F5FEF708E2F90E0EA30B7
:102C4000C0F0C7968D939D932F5F243159F74FBFE6
:102C50008091E800877F8093E8006AE270E0CE010F
:102C600001960E946F058091E8008B778093E800C1
:102C7000DAC0C096E7CF40910A0450910B04292F87
:102C800033272330310569F1A0F42130310509F4EF
:102C90006CC062E570E088E896E02230310509F00A
:102CA000C2C02091E800277F2093E8000E94100511
:102CB000DACF2132310509F440C02232310509F45E
:102CC00048C02F30310509F0AEC0EEE4F7E0E491E2
:102CD0006E2F70E08CE497E06115710509F4A3C0D4
:102CE000E0CF992781309105C1F0009771F08230D3
:102CF0009105D9F0039709F096C0ECEEF6E0E49167
:102D00006E2F70E08CEE96E0E7CFE8E4F7E0E49118
:102D10006E2F70E088E497E0DFCFE6E1F7E0E49122
:102D20006E2F70E086E197E0D7CFE2EFF6E0E49116
:102D30006E2F70E082EF96E0CFCF41155105D1F0B4
:102D40004130510509F06FC069E070E083EB96E017
:102D5000A8CF4115510599F04130510509F063C0E4
:102D60006CEB70E08CE895E09CCF62E170E08AED5E
:102D700096E097CF69E070E08AE996E092CF60E450
:102D800070E088E496E08DCF803809F04CC08091E7
:102D9000E800877F8093E800809105048093F1002C
:102DA000D2CE811140C0109108041230E0F580911C
:102DB000E800877F8093E800109305040E945E047A
:102DC000112311F084E005C08091E30087FDFACF64
:102DD00081E08093040442E061EC81E00E947D0484
:102DE00042E261EC82E00E947D0442E361EC83E018
:102DF0000E947D0442E360EC84E00E947D0413C0E5
:102E000080910804813079F481E0933009F080E00A
:102E1000809303041092E9008091E800877F8093FB
:102E2000E8000E945E048091E80083FF0AC0809160
:102E3000E800877F8093E8008091EB0080628093B8
:102E4000EB00AA960FB6F894DEBF0FBECDBFDF91A0
:102E5000CF911F9108951F920F920FB60F921124D8
:102E60002F933F934F935F936F937F938F939F9392
:102E7000AF93BF93CF93DF93EF93FF93D091E9008C
:102E8000DF708091EC00C82FC17080FDC0E8109207
:102E9000E9008091F000877F8093F00078940E9491
:102EA00060141092E9008091F00088608093F00037
:102EB000CD2BCF70C093E900FF91EF91DF91CF91BF
:102EC000BF91AF919F918F917F916F915F914F9142
:102ED0003F912F910F900FBE0F901F901895882350
:102EE000B1F19CEF980F913A38F4682F86E392E0A5
:102EF0000E9427070C94D90790E2980F983088F425
:102F0000877021E030E0A90102C0440F551F8A9567
:102F1000E2F7CA0180959091760389238093760326
:102F2000E9CF9BE5980F933020F490E080E00C947B
:102F3000BF0898E5980F973120F490E080E00C945A
:102F4000A908803F20F00E94E9050C9466130895BB
:102F5000CF93C82F882309F46EC08CEF8C0F813A71
:102F6000B8F580912401882311F18091990387FF9E
:102F70001EC0EC2FE695E695E695F0E0EA5CFD4F85
:102F8000828190E04C2F477021E030E002C0220F98
:102F9000331F4A95E2F782239323892B89F06C2F04
:102FA00086E392E00E9427070E94D90709C0E8E360
:102FB000F2E08191C81799F382E0EE33F807C9F780
:102FC0006C2F86E392E00E945107CF910C94D907B1
:102FD00080E28C0F883068F4C77021E030E001C0D7
:102FE000220FCA95EAF780917603822B80937603AD
:102FF000ECCFEBE5EC0FE33040F4F0E0EC5FFD4F9D
:10300000808190E0CF910C94BF08E8E5EC0FE731A8
:1030100050F4F0E0EE0FFF1FE95FFD4F80819181DA
:10302000CF910C94A908C03F30F08C2F0E94B006BD
:10303000CF910C946613CF910895CF93C82F0E941F
:10304000A817C93349F42FEF87EE93E02150804051
:103050009040E1F700C000008C2FCF910C946F17C7
:103060000F931F93CF93DF93C42FD22FFC01828144
:103070008823A1F04093FF020E945A139093EB0221
:103080008093EA02C77081E001C0880FCA95EAF711
:10309000DF91CF911F910F910C949F081091FF0227
:1030A000141335C08091EA029091EB020E94180738
:1030B000883C910560F5C0E2CD0F1D17B9F080E2A4
:1030C000810F883040F4177081E001C0880F1A9595
:1030D000EAF70E949408C83048F481E09D2F977069
:1030E00001C0880F9A95EAF70E949F08802F0E94DE
:1030F0001D18C83098F4D77081E001C0880FDA95A8
:10310000EAF7DF91CF911F910F910C949408C7704B
:1031100081E001C0880FCA95EAF7F3CFDF91CF9124
:103120001F910F9108956091D903669570E04BE06F
:1031300050E08AE091E00E94532C892B19F481E041
:103140008093B4030E945A139093AE038093AD030F
:1031500008959091D90390FF36C09170811129C0D4
:1031600092609093D903662351F06091D9037091D6
:10317000DA038091DB039091DC030E946B0D609178
:10318000D903669570E04BE050E08AE091E00E9440
:10319000532C892BA9F01092B40381E08093B003E3
:1031A00020E04091DC036091DB038091DA030C9412
:1031B000B0118B3210F09465D4CF880F982BD1CFFB
:1031C0000E949318EACF08951F920F920FB60F92A4
:1031D00011242F933F934F935F936F937F938F931C
:1031E0009F93AF93BF93EF93FF938091E10082FF92
:1031F00009C08091E20082FF05C08091E1008B7FD1
:103200008093E1008091DA0080FF24C08091D80093
:1032100080FF20C08091DA008E7F8093DA00809159
:10322000D90080FFB0C080E189BD82E189BD09B4C9
:1032300000FEFDCF81E0809304048091D8038111CA
:1032400009C00E94E2030E94AF048091E200846002
:103250008093E2008091E10080FF17C08091E2003E
:1032600080FF13C08091E2008E7F8093E200809106
:10327000E20080618093E2008091D80080628093B8
:10328000D80019BC85E0809304048091E10084FF9C
:103290003EC08091E20084FF3AC080E189BD82E1B6
:1032A00089BD89B5982F917080FFFBCF8091D800A0
:1032B0008F7D8093D8008091E1008F7E8093E10024
:1032C0008091E2008F7E8093E2008091E200816035
:1032D0008093E20080910504882309F45AC084E0B9
:1032E000809304040E944B140E94D5081092DF03BF
:1032F0008091DE03882349F08091D9038160809317
:10330000D90360E086950E94A9180E9493188091C5
:10331000E10083FF27C08091E20083FF23C08091FA
:10332000E100877F8093E10082E0809304041092A3
:1033300005048091E1008E7F8093E1008091E2009E
:103340008E7F8093E2008091E20080618093E200B2
:1033500042E060E080E00E947D048091F00088609F
:103360008093F000FF91EF91BF91AF919F918F916A
:103370007F916F915F914F913F912F910F900FBE71
:103380000F901F90189519BC109204041092D80346
:1033900061CF8091E30087FD93E090930404A2CF76
:1033A00061E00C94A918E9EDF3E0808181608083ED
:1033B00086950C94D0198091D9038695815009F493
:1033C0008AE261E00C94A9188091D90386958F5FF9
:1033D0008B3208F081E061E00C94A9189091D90338
:1033E00090FF07C09695981720F0961710F40C944C
:1033F000E4190C94D0194F925F926F927F928F9242
:103400009F92AF92BF92CF92DF92EF92FF920F9373
:103410001F93CF93DF9300D000D00F92CDB7DEB7CC
:103420007C01FC0183819481892B39F01081D1804A
:10343000812F8D218F3F09F0E2C60F900F900F90E2
:103440000F900F90DF91CF911F910F91FF90EF9010
:10345000DF90CF90BF90AF909F908F907F906F90B4
:103460005F904F9008950E94720B082F682F8981FA
:103470009A810E944708E12FF0E026E0D29EE00DFD
:10348000F11D112434E5039FE00DF11D1124EE0F11
:10349000FF1FEF54FD4F059114918091D5038823B0
:1034A00021F08091D603811196C6F70182810932FD
:1034B000FDE51F0709F09CC08823C9F180918703AF
:1034C00091E0980F9770887F953008F4892B80934E
:1034D00087038091870387702FEF829FC00111249B
:1034E00095958795959587959927909389008093D1
:1034F000880090938B0080938A0090938D00809336
:103500008C004091870350918803609189037091EA
:103510008A038FE090E00E94862C6091D103709125
:10352000D2038091D3039091D4030E94F70BF7014B
:103530008281882309F4A8C09801215E3C4525308A
:10354000310508F0A1C06FE1600F609383038CE048
:1035500090E00E94742CF7019281992309F477C6B8
:103560001092FF020230FCE51F0708F459C606312D
:103570002CE5120738F098012A5F3C4527303105C9
:1035800008F04EC60E945D0D90939A0380939903B4
:103590000F303CE5130709F4F1C108F06BC10830A6
:1035A0009CE5190709F4D4C108F040C10430FCE5DA
:1035B0001F0709F4C1C108F026C102303CE513071A
:1035C00009F4B2C103301C4509F4B2C160919903FA
:1035D00010919A0384E090E00E94742C612F81E2A4
:1035E00090E00E94742C0E944B1434C081E1F9C514
:1035F0000C323DE5130709F158F40B32EDE51E07D7
:1036000009F095CF882331F181E00E94D01922C0C2
:103610000D32FDE51F0761F10E322DE5120709F0AD
:1036200086CF8823B9F00E94D31981E00E94D01977
:1036300021E04FEF6FEF8BE10BC0882359F00E9420
:10364000D31981E00E94D01921E04FEF6FEF8CEA8F
:103650000E94B01180917303877009F4EECEF701D8
:103660008281882309F4E9CE82E00E940814E5CE25
:10367000882381F30E94D31981E00E94D01921E0B0
:1036800040E86FEF86E5E4CF17FF74C0882309F4A4
:1036900062CF809176038093FE0210927603809130
:1036A0008303813009F441C08823D9F1823009F4C1
:1036B00049C0843009F44DC08FE39CE90197F1F7CC
:1036C00000C000005801E894B7F8ECE0CE2ED12CF1
:1036D00095010C2C02C0369527950A94E2F72F70BD
:1036E00087E290E029F0822F90E02A30B8F54D96DD
:1036F0000E941D1894E0C91AD108ECEFCE16EFEF26
:10370000DE0631F780918303813071F1882341F126
:10371000823031F1843061F18091FE028093760332
:103720001ACF82EE0E94A817C7CF83E00E948A08B2
:1037300088E10E94A81788E10E946F1783E00E9429
:103740007F08BACF82EE0E94A81787E50E941D1855
:10375000B3CF86EE0E941D1888E1F8CF0697C8CF38
:1037600082EE0E946F17D8CF8CE20E941D18D4CF32
:1037700088E2FBCF033FFCE51F0769F1B0F4083D89
:103780003CE5130711F1093D8CE51807B1F1073D40
:103790009CE5190709F0DFCE06E221EE41EE67ED68
:1037A0007CE5C7010E94301855CF053FECE51E07A8
:1037B000F1F0B8F0063F2CE5120709F0CCCE07E295
:1037C00025EE46EE66EF7CE5ECCF07E225EE45EE12
:1037D00068ED7CE5E6CF06E221EE40EE63EF7CE5A6
:1037E000E0CF07E225EE44EE64EF7CE5DACF06E2B7
:1037F00021EE42EE65EF7CE5D4CF08E221E045EE14
:1038000069ED7CE5CECF80919903806106309CE51F
:10381000190709F447C080919903886007301C4557
:1038200008F440C08091990380623CC00B30FCE5F5
:103830001F0709F49BC068F409303CE5130709F43D
:103840008BC00A301C4509F0C1CE809199038C6071
:1038500029C0809199038B7F0D309CE5190711F1E8
:10386000809199038D7F0E301C45E0F08091990383
:10387000877F18C00A3FFCE51F0709F461C060F5A7
:1038800002313CE5130709F481C078F400319CE56E
:10389000190709F477C0809199038F7B01311C458A
:1038A00009F094CE8093990391CE0431FCE51F0773
:1038B00009F47AC008F470C005311C4509F086CEC1
:1038C0008091990382FB992790F921E0922790FB40
:1038D00082F990FB83F9E6CF0D3F8CE5180709F4D8
:1038E00049C070F40B3FECE51E0771F180919A031B
:1038F0008E7F0C3F1C4509F069CE80939A0366CEFB
:103900000F3F2CE5120709F44BC060F101151D456E
:1039100009F05CCE80919A03982F909591708E7FDC
:10392000892B90FB81F9E9CF809199038160BACF0F
:10393000809199038260B6CF809199038460B2CF61
:1039400080919A038160D9CF80919A038260D5CF0C
:10395000809199038064A6CF0E944B1480919903B3
:103960008068A0CF80919A038360C7CF809199032C
:103970008E7F98CF80919A038D7FBFCF80919903DE
:103980008F7E90CF809199038F7D8CCF0E944B14B6
:10399000809199038F7786CF80919903837F82CF1F
:1039A00080919A038C7FA9CF0E944B149091990328
:1039B000892F97FB87F9805875CF992309F4D1C0D7
:1039C000809176038272F801E25CFC45E431F105F6
:1039D00008F072C0E45DF24D0C94B72A8091D903CF
:1039E00080FF1BC08E7F8093D9036091D9037091B3
:1039F000DA038091DB039091DC030E946B0D10923F
:103A0000B4039FEFE0E7F2E09150E040F040E1F7CF
:103A100000C000000E94760E1DCE0E94D3191ACE5F
:103A20004BED59E164EE79E10E94E10813CE44EEDA
:103A300059E16BED79E1F8CF46E752E16FE772E1CA
:103A4000F3CF4FE752E166E772E1EECF4EE552E188
:103A50006AE672E1E9CF4AE652E16EE572E1E4CF4F
:103A600046E452E162E572E1DFCF42E552E166E40D
:103A700072E1DACF4DE75DE06EE87DE0D5CF4EE84C
:103A80005DE06DE77DE0D0CF65E082E00E94EE1959
:103A9000E1CD68E086E0FACF6EE089E0F7CF64E13F
:103AA0008FE0F4CF67E185E1F1CF88E1AECD62E24E
:103AB00089E1ECCF83E2A9CD0E3D2CE5120709F494
:103AC00046C008303DE5130709F444C001151C4504
:103AD00009F047C00E944B149FEFE4E3FCE09150D3
:103AE000E040F040E1F700C00000F89481E08093EE
:103AF000E00080E28093D8001092C9008FE19EE43C
:103B00000197F1F700C000001DBA109268001CBCBC
:103B100010BE1FBA10927A0010926E0010926F00C1
:103B200010927100109272001092C9001092BC00A5
:103B300014B817B81AB81DB810BA1092BC0015B84E
:103B400018B81BB81EB811BA0C94003F83CD0E9460
:103B5000AE0D80CD8091D70391E089278093D70364
:103B600079CDF70100811181992309F444C0C8017E
:103B70000E94720BD82E682FC8010E944708B80116
:103B80008D2D0E94CF09082FD92EB82EF701C580A0
:103B9000C2947FE0C72212811111109275038091A7
:103BA00073038770C1F01123B1F08D2D807F8034B5
:103BB00049F090E2900F983070F0803619F4F6EFEB
:103BC000BF1649F082E00E94081480917303877049
:103BD000AA24A3948111A12C9D2C92945FE095229C
:103BE0006BE0462E491408F441C0E92DF0E0E05C9A
:103BF000F24D0C94B72AC8010E941E08D82EBFCFE0
:103C00002D2D2F70C22E8D2D807F19F0C29440EF84
:103C1000C4221123C9F0CC2069F080E2800F8830E3
:103C200010F0B1100BC080917603C82AC0927603C1
:103C30000E94D907802F0E94A81718C08091750391
:103C4000C82AC0927503F4CF802F0E946F17CC2032
:103C500069F0C094005E083010F0B11057C0809138
:103C60007603C822C09276030E94D907292D2850D6
:103C7000330B2430310510F40E94D508112379F05C
:103C80008D2D807F803619F436EFB31641F0809188
:103C90000103823009F097C283E080930103AA20D8
:103CA000A9F08091730380FD11C0F7011282859500
:103CB000859585950E942014C7010E94FB1980916B
:103CC00073038595859585950E94E51385E0F70139
:103CD000DE01119601900D928A95E1F789819A8112
:103CE0000E941E089A81E981F0E026E0929FE00D93
:103CF000F11D112434E5839FE00DF11D1124EE0F19
:103D0000FF1FEF54FD4F8591949197CB80917503E0
:103D1000C822C0927503A8CF3D2D3F70832E8D2DF4
:103D2000807F803219F0829430EF8322BB2041F0F3
:103D300081E0B81631F1112381F1CC2049F17ACF1D
:103D4000112391F090917703882D892BC11003C026
:103D50000E949F088BCFE1E0CE12FACF981709F4AA
:103D600085CF8093770382CFC11006C00E94D3070E
:103D7000882D0E9494087ACFF1E0CF1609F476CF0F
:103D8000F5CF112339F0442443944C1408F46ECF3A
:103D9000882DDECFC1106ACFEBCFCC2049F329E3C9
:103DA000522EB51009C02FEF37EE83E0215030407E
:103DB0008040E1F700C00000802F0E946F1756CFAF
:103DC0008D2D86958695837069F0813009F04ECFF0
:103DD000802F9D2D9370111102C090E080E00E9411
:103DE000A90844CF802F9D2D9370111102C090E03F
:103DF00080E00E94BF083ACF802F112329F00E9453
:103E0000B0060E94661332CF0E94E905FACF8D2DCD
:103E1000837009F067C0111129CF202F22952695B4
:103E20002770220F220F402F4F7050E070E060E0AB
:103E3000022E04C0440F551F661F771F0A94D2F745
:103E400080E090E0DC0104FF0FC08FE090E0A0E094
:103E5000B0E004C0880F991FAA1FBB1F2A95D2F794
:103E600080959095A095B0952D2D2695269523703B
:103E7000223029F1D8F44090780350907903609073
:103E80007A0370907B03213069F0842B952BA62B4D
:103E9000B72BBC01CD0164217521862197210E9499
:103EA0004114E4CE44295529662977292A013B018A
:103EB000482A592A6A2A7B2AC301B201F0CF842BEF
:103EC000952BA62BB72B40907803509079036090E8
:103ED0007A0370907B03BC01CD016425752586258E
:103EE0009725DDCF8695112311F08D2D81708823C4
:103EF00009F4BCCE202F229526952770220F220F81
:103F0000402F4F7050E070E060E0022E04C0440F7C
:103F1000551F661F771F0A94D2F780E090E0DC01FE
:103F200004FF0FC08FE090E0A0E0B0E004C0880F75
:103F3000991FAA1FBB1F2A95D2F780959095A0952F
:103F4000B0952D2D269526952370223029F1D8F491
:103F50004090D1035090D2036090D3037090D4036B
:103F6000213069F0842B952BA62BB72BBC01CD01FA
:103F700064217521862197210E94AA1377CE4429B6
:103F80005529662977292A013B01482A592A6A2A94
:103F90007B2AC301B201F0CF842B952BA62BB72B24
:103FA0004090D1035090D2036090D3037090D4031B
:103FB000BC01CD016425752586259725DDCF2D2DE6
:103FC0002F70C22E112329F0822F0E942014802FDF
:103FD000BFCE802F0E9494088C2D0E94E51346CE00
:103FE000802F32EFB31609F452C03B1578F090EFF2
:103FF000B91629F1E1EFBE1609F441C0112309F405
:104000006AC0C11017CE8D2D8F713EC0F3EFBF1661
:1040100009F442C094EF492EB410F0CF112309F4F3
:104020004FC00D2D0F71802F0E94201428E0029F99
:10403000C0011124836080937303802F25C0112356
:10404000C1F0C11013CE2D2D2F7161E070E080E022
:1040500090E004C0660F771F881F991F2A95D2F73A
:104060004090D1035090D2036090D3037090D4035A
:10407000A1CF552453945C1408F4F8CDE4CF8D2DD2
:104080008F71112309F4A9CF0E942014EFCD8D2D3B
:104090008F711123C9F3A1CF60E070E0CB01112330
:1040A00009F46ACF2D2D2F7161E070E080E090E07F
:1040B00004C0660F771F881F991F2A95D2F75CCF1F
:1040C00081E00E94081431E03C1508F0CFCD82E079
:1040D0000E940814CBCDCC2059F0893309F06CCE66
:1040E0008FEF97EEE3E081509040E040E1F762CE41
:1040F0008D2D8F7172CFE0E1E00FE73008F03EC008
:10410000F0E0E45BF24D0C94B72A112309F4AECD34
:104110008091030391E0892780930303A7CD109337
:104120000303A4CD81E08127F7CF11119FCD81E05A
:10413000F3CF11119BCD1092030398CD112321F0E1
:1041400082E080930103F3CF80910103823021F458
:1041500081E0809301038ACD833009F087CD1092EE
:104160000103E9CF112339F080910203882381F202
:10417000109202037BCDCC2059F278CD80910203BE
:10418000CC20A9F0882341F08091030391E0892796
:104190008093030310920203802F11114CCD0E94D3
:1041A0006F1786E0F70111928A95E9F75FCD8823B2
:1041B00009F45CCD11115ACD8091030391E0892758
:1041C00080930303D5CF813009F069CD10920103AC
:1041D0001092030364CDF70182811982811106CA0E
:1041E00082E18A83F70180818B8381818C838EEFCA
:1041F0008D8365E0CE0101960E94D10556C985E008
:10420000DE01119601900D928A95E1F7F701228166
:1042100089819A81211127C90E941E08082F2BC964
:104220000631FCE51F0709F0C8CB809176038A7A36
:1042300091E009F490E09093000369E2811165E355
:1042400086E392E00E9451070E94D90703CA063113
:104250001C4509F086CC8091000369E2811165E379
:1042600086E392E00E942707EFCF1F93CF93DF935F
:1042700080910903807FA9F480910603882389F047
:1042800080913B03D0910A03609104037091050370
:10429000A0910703B0910803C62FC72316E0D813D7
:1042A00004C0DF91CF911F91089590E0109711F015
:1042B000CF3F19F401968770F2CF189F9001199F94
:1042C000300D1124F901E55FFC4F41814713F2CF16
:1042D00040814613EFCF42814111ECCF438154819D
:1042E0004A1B5B0B483C510528F7809109038F70EE
:1042F000806180930903F901E05FFC4F80818F703A
:104300008061808384E093E00E94FB19DF91CF916C
:104310001F910C947508AF92BF92CF92DF92EF92EB
:10432000FF920F931F93CF93DF93CDB7DEB76197C3
:104330000FB6F894DEBF0FBECDBF8C0185E0F8014B
:10434000DE011D9601900D928A95E1F7F8018081BA
:104350009181E28024E0A22E23E0B22E6091070337
:10436000709108036115710509F43EC13091040391
:1043700040910503232F24232F3F09F435C1C38027
:10438000D480F0900603F601E61BF70BFF2009F43A
:10439000FBC020910903522F507FE83CF10508F043
:1043A000BBC0511178C0FE2C491321C038131FC067
:1043B000E1101DC02F70206120930903C5010E94E8
:1043C000FB1980910903F80185838F2D61960FB643
:1043D000F894DEBF0FBECDBFDF91CF911F910F913B
:1043E000FF90EF90DF90CF90BF90AF900895CD28D1
:1043F00029F0282F29232F3F09F022C120E0F22F96
:10440000F170DF2E20FF3DC020913B0340910A0355
:1044100056E0241315C08D879E878D859E850E944A
:10442000B40B292F22952F702230F8F0243020F57C
:104430009F70F9F0F8019581907FD9F4D12C1FC0BD
:1044400030E0529FF001539FF00D1124E55FFC4FC7
:104450006181961306C06081861303C06281E612F3
:1044600010C02F5F3F4F2770D4CF9F7011F088236B
:1044700029F3805E883010F3C8010E94FB19FD2CDF
:10448000A4CFEE2009F4A1CF80910903816080932D
:104490000903F12C9ACF491312C0381310C0E11050
:1044A0000EC0F8012583C8010E94FB1986E0F801BF
:1044B000A4E0B3E001900D928A95E1F786CF8D8755
:1044C0009E878D859E850E94BE0B882309F1EE2074
:1044D000F9F080910903803270F02091040330914B
:1044E000050338872F831986DB86CA868C87CE0121
:1044F00007960E94FB1986E0F801A4E0B3E0019062
:104500000D928A95E1F70E943521FF24F3945DCF47
:10451000C8010E94FB19F9CF51110AC084E093E051
:104520000E94FB1986E0F50111928A95E9F7B1CF57
:1045300049130FC038130DC0E1100BC0F8012583DB
:10454000C8010E94FB1986E0F50111928A95E9F7EE
:104550003CCF8D879E878D859E850E94BE0B8823CC
:10456000B9F2EE20A9F280910903803220F2209165
:104570000403309105033A8329831B82DD82CC82B8
:104580008E83CE010196B5CFE83CF105E0F6FE2C16
:10459000EE2009F4BDCF491316C0381314C0809122
:1045A000090380FD83CF982F907F09F47FCFF80116
:1045B0008583903F09F477CF982F907F905F8F701D
:1045C000892B858370CF8D879E878D859E850E94E0
:1045D000BE0B811190CF8091090381608093090304
:1045E000C8010E94FB19F1CEEE2009F491CF8D870E
:1045F0009E878D859E850E94BE0BF82E882309F428
:1046000087CF86E0F801A4E0B3E001900D928A958F
:10461000E1F780910403909105030E94B40B9295F9
:104620009F70963051F4863F41F08091030391E0F2
:10463000892780930303909302030E943521C5CEFE
:1046400021E02E25DCCE1F93CF93DF93CDB7DEB7CD
:1046500067970FB6F894DEBF0FBECDBF6D8B7E8B14
:104660008F8B8E899F89892BE1F0852F84238F3F43
:1046700009F098C05FEF4FEF14C03091030333236C
:1046800009F44EC0E42FF0E036E0539FE00DF11D39
:104690001124EE0FFF1FE45AFE4F40815181822BFF
:1046A0008C931A8A198A4B8B5C8B85E0FE0173967A
:1046B000DE011D9601900D928A95E1F786E0FE01DC
:1046C0003D96DE01179601900D928A95E1F7CE0195
:1046D00007960E948B21811112C086E0FE01379659
:1046E000DE01119601900D928A95E1F78A859B85EE
:1046F000892B29F08F81988589238F3FC9F516E092
:1047000080913B0390910A03891320C067960FB6EE
:10471000F894DEBF0FBECDBFDF91CF911F910895FA
:1047200080958223BDCF96E0929FD001939FB00DDC
:104730001124A55FBC4FFE01319601900D929A9510
:10474000E1F780930A030E947508D9CF819FC001C9
:104750001124855F9C4F0E948B218823B9F28091A0
:104760003B0390E001968770992780933B03C8CF65
:1047700020910A0330E0C901019687709927409182
:104780003B034817190679F60E944B1410920A034E
:1047900010923B0386E0E4E0F3E0DF011D928A958E
:1047A000E9F7ADCF81E090E0042E01C0880F0A94B4
:1047B000EAF7A52FB0E0A051BD4F2C913D893111F2
:1047C0005CCF322F38235BCF8F929F92BF92CF92D4
:1047D000DF92EF92FF920F931F93CF93DF9380911D
:1047E000180190911901892B91F0809157028F5FE8
:1047F0008093570281110BC00E94881290E0909321
:10480000190180931801892B11F40E94E30C2BE805
:10481000822E23E0922E740110E000E097E0C92E72
:10482000C00E802F0E94220E8C2D0E94220E802FFF
:104830000E94FF12E70199917E01D12C891729F07E
:10484000FE0131978083DD24D3948C2D0E94FF12CA
:10485000F7019681891709F47AC0868381E08D2952
:10486000182B0E942B0C0F5F0730C1F60E945A13C1
:104870006091590270915A0290935A0280935902A2
:104880002091580230E0261B370B820F931F6BEFED
:1048900070E00E948F2AE82E392F082F809358024B
:1048A000F0905C02FF2009F4A3C010925C02E0913A
:1048B0008103F0918203AF01425F5F4F20E08BEFF5
:1048C000B82E6BEF70E0A191AB3F99F0CA2ED12CBE
:1048D0008E2D932F0A17E8F18C199D09092E000CD3
:1048E000AA0BBB0B4E97A105B105C8F1DF011197CB
:1048F000BC92E417F50739F720935C02111102C04E
:10490000211178C010925B02A0918103B0918203C3
:1049100090915C02EFE9F3E080E03191E4012991AC
:104920004E01321751F03C913B3FD9F40C93AF014B
:1049300041505109EA01288391E01196D3E0ED3A04
:10494000FD0759F790935C0280935B0257C080E0AB
:1049500086CFDB01AC19BD098A0F9B1FBFCF2F2D5E
:10496000C8CF81E0EACF9170892B09F458C08091BB
:104970005E0290915F028130984780F01092D703D9
:104980006091D1037091D2038091D3039091D403AD
:104990000E94F70B10925F0210925E0280915E02FD
:1049A00090915F02019690935F0280935E02812F47
:1049B000DF91CF911F910F91FF90EF90DF90CF90FB
:1049C000BF909F908F9008950E94F10B2EC0892B6D
:1049D00071F310925F0210925E026091D1037091A8
:1049E000D2038091D3039091D4030E94F70BDFCFC1
:1049F000111188CF80915B02811184CF80915E027A
:104A000090915F022091D703222309F3009709F0C8
:104A1000AACF0E94E80B0E94E50B0E94E20BC09116
:104A20005D02CC2389F20E94E50B81E0C827C09388
:104A30005D029DCFCDB7DEB7C955D1090FB6F89449
:104A4000DEBF0FBECDBF84B7877F84BF0FB6F8949B
:104A5000A89580916000886180936000109260004A
:104A60000FBE80E890E00FB6F894809361009093B9
:104A700061000FBE85B7806885BF85B7806885BF38
:104A80000E94E2030E94AF048091E2008460809360
:104A9000E2007894809104048823A1F01091E90049
:104AA0001F709091EC00892F817090FD80E8182B89
:104AB0001092E9008091E80083FD0E9460141F704D
:104AC0001093E90082E084BD93E095BD9AEF97BD15
:104AD00080936E000E94881290E090931901809359
:104AE00018010E942B0C0E943A0CEBE8F3E0AFE9AE
:104AF000B3E011921D9223E0E939F207D1F78EE07D
:104B000090E00E94282B8093810390938203FC0104
:104B10000E962BEF21938E179F07E1F790E080E030
:104B20000E946E2C8F3E9E4F11F00E94AE0D8CE0C5
:104B300090E00E94602C90E0B0E0A0E080938303BE
:104B400090938403A0938503B093860389EA8093AE
:104B5000800089E08093810024982C983F988AB146
:104B60008F7C8AB96E98479A8BB180638BB9769A9D
:104B70008FE090E00E94682C609387037093880315
:104B80008093890390938A0367708FEF689FB001C9
:104B900011247595679575956795772770938900AA
:104BA0006093880070938B0060938A0070938D00EF
:104BB00060938C000E94E30C90E080E00E946E2CD9
:104BC0008F3E9E4F11F00E94AE0D82E090E00E9459
:104BD000602C8093C2030E945D0D90939A03809392
:104BE000990383E090E00E94602C682F70E090E0D1
:104BF00080E00E9441146091D1037091D2038091B2
:104C0000D3039091D4030E94F70B80919B038111F1
:104C100036C090E080E00E946E2C8F3E9E4F21F0C7
:104C20000E94AE0D0E949F0D88E090E00E94682CCB
:104C30006093D9037093DA038093DB039093DC03D2
:104C40006E7F71F40E949F0D88E090E00E94682CB6
:104C50006093D9037093DA038093DB039093DC03B2
:104C60000E94E6081092B4038091D90380FF04C02B
:104C700060E086950E94A91881E080939B03609173
:104C8000D1037091D2038091D3039091D4030E94F9
:104C9000F70B8AE191E090939D0380939C03A1E43C
:104CA000EA2EF12CEC0EFD1E22E0E20EF11C8091AA
:104CB0000404853009F493C10E94E423E3ECF3E09B
:104CC000AFE9B3E010E000E0302F8D91219128177B
:104CD00009F4F3C190E0DD24D3942827422F4D211D
:104CE00009F4E6C161969FAF619762963FAF629704
:104CF0008D2191E009F490E063969FAF63970E9445
:104D00005A138160782F65969FAF8EAF6597619635
:104D10004FAD619762965FAD629763966FAD639793
:104D200065968FAD65970E942323F801ED53FC4FE4
:104D30008081D826D0828091B403882309F441C0B1
:104D40008091B303E091D903E695E81BE093AF03AC
:104D5000823009F0D9C1F0E0E654FB4FE4910E2F08
:104D600010E0FCE8CF2EF1E1DF2E8091B003882324
:104D700089F01092B0030E945A1398012095309543
:104D8000820F931F9093AE038093AD031092B203F2
:104D90001092B1038091AD039091AE030E94180769
:104DA0008017910770F0E091AD03F091AE030E0F04
:104DB0001F1F1093AE030093AD038DEA93E0F6013D
:104DC000099586E0EBEBF3E0DE01119601900D9280
:104DD0008A95E1F7D090BD03C090BE031091BF0348
:104DE0000091C0031092BD031092BE031092BF0346
:104DF0001092C0038D2D8C2909F448C08091B9030D
:104E00009091BA030E9418079C019091B8039923CE
:104E100009F487C225313105C8F19F3F19F09F5F22
:104E20009093B803DD2059F00E948C069FEF1D146B
:104E30000CF491E0899F802D11248093BD03CC2038
:104E400059F00E948C069FEF1C140CF491E0899F8E
:104E5000802D11248093BE033091BD033323B1F024
:104E60002091BE03222391F045EB3403C0011124AD
:104E7000992309F4B5C19093BD0345EB2403900138
:104E80001124332309F4B0C13093BE03812F802B4A
:104E900009F448C08091B6039091B7030E941807A7
:104EA0009C019091B503992309F437C2253131054E
:104EB000C8F19F3F19F09F5F9093B503112359F0FC
:104EC0000E946C069FEF11160CF491E0899F802DD3
:104ED00011248093BF03002359F00E946C069FEFBA
:104EE00010160CF491E0899F802D11248093C0034B
:104EF0003091BF033323B1F02091C003222391F0FE
:104F000045EB3403C0011124992309F471C1909336
:104F1000BF0345EB240390011124332309F46CC132
:104F20003093C0038091BD039091BE03892B909173
:104F3000BF03892B9091C003892B11F00E94661347
:104F400086E0FE013196ABEBB3E001900D928A95BD
:104F5000E1F70E94D5089091C103891721F00E94C2
:104F6000D5088093C10380910404843009F09FCE5A
:104F70008093E9008091E80082FF99CE8091E8005B
:104F800090E085FF06C00E940104882309F438C11F
:104F900091E08091E8008B778093E800992309F4F1
:104FA00086CE1981111148C18091D703882309F455
:104FB0005EC11092D70381E08093D60322961FAE84
:104FC000229723961FAE23978EEF24968FAF2497B8
:104FD00063E0CE018F5B9F4F0E94D10568CE809128
:104FE0000404843009F441C010929E0388E190E0EB
:104FF00020E40FB6F894A895809360000FBE20932C
:1050000060001092B4038091DF03811117C081E02A
:105010008093DF038091D903982F91709093DE03E2
:105020008E7F8093D9034FEF80E792E0415080401C
:105030009040E1F700C000000E94760E83B7817FA8
:10504000846083BF83B7816083BF7894889583B77A
:105050008E7F83BF0FB6F894A89580916000886119
:1050600080936000109260000FBE8091030488233B
:1050700009F41DCE0E94881290E09093190180934C
:1050800018010E942B0C0E943A0C0DEA13E0EFE984
:10509000F3E011920E171F07E1F70E94E423EFE9F6
:1050A000F3E08191811123C10E171F07D1F7FFCDC6
:1050B0009F5FDD0C963009F011CE0F5F1F4F0E3051
:1050C000110509F001CE8FEF66968FAF6697679650
:1050D0008FAF679768961FAE68970E945A138160DA
:1050E000782F6A969FAF8EAF6A9766964FAD669798
:1050F00067965FAD679768966FAD68976A968FAD54
:105100006A970E94232317CE863059F4F0E0E954C1
:10511000FB4FE4910E2F10E0E0EACE2EE1E1DE2E0F
:1051200024CE893061F4E695F0E0EC54FB4FE49135
:105130000E2F10E074E7C72E7FE0D72E16CE8F30EB
:1051400061F4E695F0E0EF54FB4FE4910E2F10E090
:105150006EE9C62E6FE0D62E08CE853159F4F0E008
:10516000E255FB4FE4910E2F10E05DE0C52E50E1BB
:10517000D52EFBCD08E210E02DE5C22E20E1D22E87
:10518000883109F4F2CD833249F4ECEAF4E0059178
:10519000149141E3C42E41E1D42EE7CD04EF11E098
:1051A00096EEC92E90E1D92E843209F4DECD8532F7
:1051B00081F48E2F63E00E94752AE92FF0E0E75515
:1051C000FB4FE4910E2F10E03BEEC32E3EE0D32EBA
:1051D000CCCD00ED17E08DECC82E85E0D82EC5CDE6
:1051E00081E08093BD0349CE81E08093BE034ECE23
:1051F00081E08093BF038DCE81E08093C00392CE87
:1052000000E410E0CE0101966C018091E80085FD7C
:105210000AC08091E8008B778093E8000E94010427
:10522000882399F3B5CE8091F100F60181936F0147
:105230000150110951F7ACCE1130C9F422961FAEBE
:10524000229723961FAF23978CE0E5E2F1E0D70188
:1052500001900D928A95E1F78EEF60968FAF60977F
:105260006FE0CE018F5B9F4F0E94D10520CD8091D2
:10527000D6038823D1F1123041F01330F9F081E0E8
:1052800022968FAF229761E0A4CE6091D1037091F6
:10529000D2038091D3039091D4030E948607229673
:1052A0001FAE229723961FAF239724968FAF249784
:1052B0008EEF25968FAF259764E08BCE8A81813063
:1052C00041F0882341F08230D1F681E08093D5030C
:1052D00002C01092D50322961FAE229783E0239638
:1052E0008FAF23978091D503E0CF8FEFC9CF80E1B7
:1052F00089BD82E189BD09B400FEFDCF8091D8004F
:105300008F7D8093D8008091E00082608093E000E0
:105310008091E00081FDFCCFCACC232B09F0CBCDDE
:1053200001CE232B09F07BCDB1CD1F921FB61F926A
:1053300011248F939F93AF93BF9380919E0381110C
:1053400013C080917C0390917D03A0917E03B09166
:105350007F034196A11DB11D80937C0390937D0333
:10536000A0937E03B0937F03BF91AF919F918F91E4
:105370001F901FBE1F9018951092B9008CE080936B
:10538000B8000895EF92FF920F931F93CF93DF938E
:10539000182FEB011092BC0084EA8093BC000E949D
:1053A0005A137C018091BC0087FF27C08091B9000F
:1053B000887F883029F08091B900887F8031D9F5C5
:1053C0001093BB0084E88093BC000E945A138C01A8
:1053D0008091BC0087FF24C02091B900287F90E015
:1053E00080E02831B1F081E090E0203411F490E0C9
:1053F00080E09195819591090CC0CF3FDC0791F237
:105400000E945A138E199F098C179D0758F28EEF30
:105410009FEFDF91CF911F910F91FF90EF90089533
:10542000CF3FDC07A9F20E945A13801B910B8C1707
:105430009D0770F2ECCF8FEF9FEFEBCF0F931F9391
:10544000CF93DF93EB018093BB0084E88093BC0093
:105450000E945A138C018091BC0087FF11C02091DB
:10546000B900287F81E090E0283211F490E080E0DC
:10547000919581959109DF91CF911F910F91089599
:10548000CF3FDC0741F30E945A13801B910B8C170E
:105490009D0708F38EEF9FEFEECF0F931F93CF93EF
:1054A000DF93EC0184E88093BC000E945A138C01C6
:1054B0008091BC0087FF08C08091BB0090E0DF9125
:1054C000CF911F910F910895CF3FDC0789F30E9480
:1054D0005A13801B910B8C179D0750F38EEF9FEF93
:1054E000EECF84E98093BC000895991B79E004C055
:1054F000991F961708F0961B881F7A95C9F7809513
:10550000089587FB082E062687FD819567FD619526
:105510000E94752A0EF4919507FC81950895AA1BA7
:10552000BB1B51E107C0AA1FBB1FA617B70710F08E
:10553000A61BB70B881F991F5A95A9F780959095C0
:10554000BC01CD01089597FB072E16F4009407D0F7
:1055500077FD09D00E948F2A07FC05D03EF4909574
:1055600081959F4F0895709561957F4F0895EE0F37
:10557000FF1F0590F491E02D09940E94FC2C332329
:1055800012F48A1B9B0B0C94C72A0E94FC2CB7FFB9
:105590000895821B930B08958F929F92AF92BF92B2
:1055A000CF92DF92EF92FF92CF93DF93EC0168816D
:1055B00079818A819B81611571058105910521F4AD
:1055C00064E279ED8BE597E02DE133EF41E050E0C7
:1055D0000E94A82C49015A019B01AC01A7EAB1E441
:1055E0000E94C72C6B017C01ACEEB4EFA5019401C5
:1055F0000E94D52CDC01CB018C0D9D1DAE1DBF1D65
:10560000B7FF03C00197A109B04888839983AA8393
:10561000BB839F77DF91CF91FF90EF90DF90CF908A
:10562000BF90AF909F908F9008950E94CC2A0895CC
:1056300080E091E00E94CC2A0895B0E0A0E0809341
:10564000000190930101A0930201B093030108951A
:105650000F931F93CF93DF938230910510F482E074
:1056600090E0E0911004F091110430E020E0B0E00F
:10567000A0E0309799F42115310509F447C0281BA3
:10568000390B24303105C0F58A819B816115710584
:1056900071F1FB0193838283FE0111C0408151812E
:1056A0000281138148175907F8F04817590799F4F0
:1056B000109761F012960C93129713961C933296E2
:1056C000CF01DF91CF911F910F91089500931004A6
:1056D00010931104F4CF2115310519F04217530727
:1056E00018F49A01BD01EF01DF01F801C2CF9093D8
:1056F000110480931004D0CFFE01E20FF31F8193B9
:1057000091932250310939832883DACF20910E04F6
:1057100030910F04232B41F42091060130910701B1
:1057200030930F0420930E04209104013091050161
:105730002115310541F42DB73EB740910801509134
:105740000901241B350B40910E0450910F044217A0
:10575000530708F0B5CF241B350B2817390708F479
:10576000AFCFBC016E5F7F4F2617370708F4A8CF75
:10577000640F751F70930F0460930E04FA018193F8
:1057800091939ECFCF93DF930097E9F0FC0132977E
:1057900013821282C0911004D0911104DE0130E016
:1057A00020E02097A1F420813181820F931F209166
:1057B0000E0430910F042817390709F067C0F093E1
:1057C0000F04E0930E04DF91CF910895DA01AE1734
:1057D000BF0708F040C012964D915C9113979D0150
:1057E0004115510599F7D9011396FC93EE93129741
:1057F0004D915D91A40FB51FEA17FB0779F48081E5
:1058000091810296840F951FD90111969C938E93D6
:105810008281938113969C938E931297B0E0A0E0BF
:105820008A819B810097B9F5FE0181919191E80FE2
:10583000F91F80910E0490910F048E179F0719F69F
:10584000109761F51092110410921004D0930F0478
:10585000C0930E04B8CFB383A28340815181840FDB
:10586000951FA817B90771F44E5F5F4F8D919C91FA
:105870001197480F591F5183408312968D919C9127
:10588000938382832115310509F0ADCFF093110484
:10589000E093100498CFDE01EC01C2CF13961C9266
:1058A0001E921297D3CFFC014150504030F001902E
:1058B0000616D1F73197CF010895882799270895C3
:1058C000F999FECF92BD81BDF89A992780B50895C8
:1058D000A6E1B0E044E050E00C949A2CA8E1B0E0DE
:1058E00042E050E00C949A2C262FF999FECF92BDFD
:1058F00081BDF89A019700B4021639F01FBA20BD95
:105900000FB6F894FA9AF99A0FBE08950396272FC6
:105910000E94752C0E94742C252F0E94752C242F18
:105920000C94752C0196272F0E94752C0C94742CC6
:10593000DC01CB01FC01F999FECF06C0F2BDE1BD4F
:10594000F89A319600B40D9241505040B8F708953E
:10595000052E97FB1EF400940E94BF2C57FD07D024
:105960000E94DA2C07FC03D04EF40C94BF2C509507
:105970004095309521953F4F4F4F5F4F089590953B
:105980008095709561957F4F8F4F9F4F08950E942E
:10599000FC2CA59F900DB49F900DA49F800D911D90
:1059A00011240895B7FF0C94C72C0E94C72C821BAA
:1059B000930B0895A1E21A2EAA1BBB1BFD010DC07B
:1059C000AA1FBB1FEE1FFF1FA217B307E407F507AF
:1059D00020F0A21BB30BE40BF50B661F771F881F8B
:1059E000991F1A9469F760957095809590959B0121
:1059F000AC01BD01CF010895A29FB001B39FC001CA
:105A0000A39F700D811D1124911DB29F700D811DEA
:105A10001124911D0895F894FFCFCD0BCD0BD60B1B
:105A2000D60BD80BD60BD60BD60BCD0BCD0BDD0B77
:105A3000D60BD60BDD0B120C1E0C230C1C0C210CF0
:105A4000280C260C7F15A7151317A7151317DA15A1
:105A5000FB151317C416D116EE1C101D171D1C1DA7
:105A6000211D261D2B1D301D351D3A1D3F1D041BFC
:105A7000441D491D4C1D4F1D521D551D571D5A1DBE
:105A8000001E001E8C1E8C1EE01EFC1E7B20361E7F
:105A9000071FDF1FF01FF01F8520B2208F209220EC
:065AA000992095209E20D4
:105AA6000100000000001204200001191A1B1C1D31
:105AB6001E1F2021220102012000CE05A30C820C0C
:105AC6007E0C7A0C0133794142412F36356252728F
:105AD600000001020202020606060909090909096F
